:020000040800F2
:10000000C006002029020008BD240008592100086C
:10001000B924000831030008052C00080000000086
:10002000000000000000000000000000212B00087C
:1000300035030008000000002D250008792B00087A
:10004000430200084302000843020008430200087C
:100050004302000843020008390300086503000852
:1000600091030008BD030008430200084302000892
:10007000430200084302000843020008430200084C
:10008000430200084302000843020008430200083C
:10009000430200084302000843020008E903000885
:1000A000430200084302000843020008430200081C
:1000B000430200084302000843020008430200080C
:1000C00043020008430200084302000843020008FC
:1000D00043020008430200084302000843020008EC
:1000E00043020008430200084302000843020008DC
:1000F00043020008430200084302000843020008CC
:1001000043020008430200084302000843020008BB
:1001100043020008430200084302000843020008AB
:10012000430200084302000843020008430200089B
:10013000430200084302000843020008430200088B
:10014000430200084302000843020008430200087B
:10015000430200084302000843020008430200086B
:10016000430200084302000843020008430200085B
:100170004302000843020008430200080000000098
:10018000430200084302000800F002F800F03CF8C7
:100190000AA090E8000C82448344AAF10107DA45E2
:1001A00001D100F031F8AFF2090EBAE80F0013F0F8
:1001B000010F18BFFB1A43F001031847CC2B0000B6
:1001C000EC2B0000103A24BF78C878C1FAD8520747
:1001D00024BF30C830C144BF04680C6070470000C1
:1001E0000023002400250026103A28BF78C1FBD840
:1001F000520728BF30C148BF0B6070471FB502F0DF
:1002000095FD1FBD10B510BD00F058F81146FFF761
:10021000F5FF02F07BFD00F076F803B4FFF7F2FF84
:1002200003BC00F07DF800000948804709480047FA
:10023000FEE7FEE7FEE7FEE7FEE7FEE7FEE7FEE796
:10024000FEE7FEE704480549054A064B70470000F3
:10025000F12B000889010008C0000020C006002022
:10026000C0020020C00200204FF0000200B513467B
:1002700094469646203922BFA0E80C50A0E80C50C6
:10028000B1F12001BFF4F7AF090728BFA0E80C5077
:1002900048BF0CC05DF804EB890028BF40F8042B70
:1002A00008BF704748BF20F8022B11F0804F18BFDD
:1002B00000F8012B7047704770477047754600F093
:1002C0002BF8AE4605006946534620F007008546E8
:1002D00018B020B5FFF7B6FFBDE820404FF000068C
:1002E0004FF000074FF000084FF0000BAC46ACE8B1
:1002F000C009ACE8C009ACE8C009ACE8C00921F00D
:1003000007018D46704710B50446AFF300802046C4
:10031000BDE81040FFF781BF004870471000002083
:1003200001491820ABBEFEE726000200704700001E
:10033000FFE7FEE77047000080B540F21440C4F2CA
:1003400001000068C00758B1FFE700F067F840F20D
:100350001441C4F20101086840F001000860FFE7A1
:1003600080BD000080B540F21440C4F20100006876
:10037000800700280BD5FFE702F0C8FB40F21441CC
:10038000C4F20101086840F002000860FFE780BD88
:1003900080B540F21440C4F2010000684007002814
:1003A0000BD5FFE702F0B2FB40F21441C4F20101A9
:1003B000086840F004000860FFE780BD80B540F2A7
:1003C0001440C4F201000068000700280BD5FFE7C5
:1003D00002F09CFB40F21441C4F20101086840F0B5
:1003E00008000860FFE780BD80B540F21440C4F209
:1003F00001000068800600280BD5FFE702F086FBAD
:1004000040F21441C4F20101086840F02000086085
:10041000FFE780BD72B6FFE7FEE7000041F214017E
:10042000C4F60001086880F480700860704700001E
:100430008CB00B900A9100200990FFE70A980068A1
:100440000999C840002800F0D381FFE70A980068A6
:10045000099A01219140084008900898002800F06E
:10046000C381FFE70A98406801280FD0FFE70A9888
:10047000406802280AD0FFE70A984068112805D092
:10048000FFE70A98406812282FD1FFE70B98806891
:10049000079009984100032000FA01F1079888436A
:1004A00007900A98C0680999490000FA01F1079875
:1004B0000843079007980B9988600B98406807904D
:1004C0000999012000FA01F10798884307900A98DA
:1004D0004068C0F30010099900FA01F10798084339
:1004E000079007980B994860FFE70A98406800F06A
:1004F0000300032818D1FFE70B98C06A07900999F9
:10050000012000FA01F10798884307900A98406893
:10051000C0F3C000099900FA01F107980843079059
:1005200007980B99C862FFE70B98C0680790099875
:100530004100032000FA01F10798884307900A98C8
:1005400080680999490000FA01F10798084307906B
:1005500007980B99C8600A984068022805D0FFE701
:100560000A984068122826D1FFE70B9809996FF086
:10057000030202EA51010844006A0790099800F05A
:10058000070081000F2000FA01F1079888430790C7
:100590000A980069099901F00701890000FA01F140
:1005A00007980843079007980B99099B02EA5302A2
:1005B00011440862FFE70B98006807900998410012
:1005C000032000FA01F10798884307900A984068D1
:1005D00000F003000999490000FA01F10798084367
:1005E000079007980B9908600A98C079C006002800
:1005F00040F1F980FFE7FFE741F26000C4F202003A
:10060000016841F001010160006800F001000690FE
:100610000698FFE7099820F003000821C4F20101C1
:1006200040580790099800F0030081000F2000FA5D
:1006300001F10798884307900B98B0F1904F03D1D0
:10064000FFE70020059050E00B9840F20041C4F60F
:100650000001884203D1FFE70120049042E00B989B
:1006600040F60001C4F60001884203D1FFE70220F2
:10067000039034E00B9840F60041C4F60001884234
:1006800003D1FFE70320029026E00B9841F200011E
:10069000C4F60001884203D1FFE70420019018E06E
:1006A0000B9841F20041C4F60001884203D1FFE7F4
:1006B000052000900AE00B9941F60002C4F6000202
:1006C0000720914208BF06200090FFE700980190A4
:1006D000FFE701980290FFE702980390FFE7039875
:1006E0000490FFE704980590FFE70598099901F049
:1006F0000301890000FA01F1079808430790079861
:10070000099921F003010822C4F20102885040F245
:100710000040C4F2010000680790089907988843D8
:1007200007900A988079C00728B1FFE708990798D1
:1007300008430790FFE7079840F20041C4F2010127
:10074000086040F20440C4F2010000680790089974
:100750000798884307900A9880798007002805D574
:10076000FFE70899079808430790FFE7079840F2CA
:100770000441C4F20101086040F20840C4F20100E3
:100780000068079008990798884307900A9880792D
:10079000C006002805D5FFE7089907980843079089
:1007A000FFE7079840F20841C4F20101086040F2F7
:1007B0000C40C4F20100006807900899079888432C
:1007C00007900A9880798006002805D5FFE70899E8
:1007D000079808430790FFE7079840F20C41C4F2DE
:1007E00001010860FFE7FFE709980130099025E65D
:1007F0000CB0704740F2BC00C2F2000000687047C5
:1008000083B001900091019890F8410020283BD1DD
:10081000FFE7FFE7019890F84000012804D1FFE7C7
:1008200002208DF80B0033E00199012081F840008F
:10083000FFE7FFE70199242081F841000198016852
:10084000086820F00100086001980168086820F439
:1008500080500860009A0198016808681043086099
:1008600001980168086840F00100086001992020A3
:1008700081F84100FFE70199002081F84000FFE77F
:1008800000208DF80B0003E002208DF80B00FFE73D
:100890009DF80B0003B0704784B00290019102985C
:1008A00090F84100202840D1FFE7FFE7029890F838
:1008B0004000012804D1FFE702208DF80F0038E046
:1008C0000299012081F84000FFE7FFE70299242008
:1008D00081F8410002980168086820F00100086072
:1008E0000298006800680090009820F47060009002
:1008F0000199009840EA0120009000980299096847
:10090000086002980168086840F0010008600299D8
:10091000202081F84100FFE70299002081F8400083
:10092000FFE700208DF80F0003E002208DF80F0094
:10093000FFE79DF80F0004B07047000080B582B05B
:100940000090009820B9FFE701208DF8070073E0C0
:10095000009890F8410040B9FFE70099002081F825
:100960004000009800F06CF8FFE70099242081F81F
:10097000410000980168086820F0010008600098B4
:100980000168406820F0706008610098016888681C
:1009900020F4004088600098C068012807D1FFE774
:1009A00000980168806840F40040886006E0009884
:1009B0000168806840F404408860FFE70098C068E0
:1009C000022806D1FFE7009801684FF400604860F4
:1009D000FFE700980168486848F20002C0F2002270
:1009E0001043486000980168C86820F40040C8605F
:1009F000009A1168106953699269184340EA02200D
:100A0000C860009A1168D069126A104308600098A3
:100A10000168086840F001000860009900204864FF
:100A2000009A202182F8411000990863009981F80A
:100A300042008DF80700FFE79DF8070002B080BD77
:100A400080B5AAB029900020289027902690259064
:100A5000249002A88821FFF707FC2998006845F236
:100A60000041C4F2000188423CD1FFE740200290DF
:100A70000020169002A800F05FF918B1FFE7FFF719
:100A8000C9FCFFE7FFE741F24C00C4F20200016835
:100A900041F002010160006800F00200019001983D
:100AA000FFE7C020249012202590002026900320EC
:100AB00027900420289040F20040C4F6000024A9AA
:100AC000FFF7B6FCFFE741F25800C4F202000168EC
:100AD00041F400110160006800F4001000900098DB
:100AE000FFE7FFE72AB080BD40F20400C2F2000039
:100AF000027840F2BC01C2F20001086810440860AC
:100B00007047000080B582B000208DF807000320F8
:100B100000F090F80F2000F00DF820B1FFE7012061
:100B20008DF8070002E000F049F8FFE79DF80700A4
:100B300002B080BD80B582B0019000208DF8030026
:100B400040F20400C2F20000007878B3FFE740F200
:100B50000000C2F20000006840F20401C2F200018D
:100B60000A784FF47A71B1FBF2F1B0FBF1F001F0C9
:100B7000EBFAB0B9FFE701980F280DD8FFE701990C
:100B80004FF0FF30002200F03BF8019840F20801DE
:100B9000C2F20001086003E001208DF80300FFE7C6
:100BA00003E001208DF80300FFE703E001208DF84A
:100BB0000300FFE79DF8030002B080BD82B0FFE7AD
:100BC00041F26000C4F20200016841F001010160DD
:100BD000006800F0010001900198FFE7FFE741F293
:100BE0005800C4F20200016841F0805101600068C1
:100BF00000F0805000900098FFE702B070470000BE
:100C000080B586B08DF81700049103920020029001
:100C100002F012F802909DF91700019002980499D1
:100C2000039A01F04DFC0146019802F02FF806B03E
:100C300080BD000080B582B00190019802F048F8B4
:100C400002B080BD84B002900298B0F5007F4DD113
:100C5000FFE747F20000C4F20000006800F4C06043
:100C6000B0F5007F41D0FFE747F20002C4F2000276
:100C70001168012060F34A21116040F20001C2F2C4
:100C800000010968322251434DF68362C4F21B32DF
:100C9000A1FB022100EB91400190FFE747F2140015
:100CA000C4F200000168002049050029009006D523
:100CB000FFE70198002818BF01200090FFE7009887
:100CC000C00720B1FFE7019801380190E6E747F23D
:100CD0001400C4F2000000684005002804D5FFE7B6
:100CE00003208DF80F001BE0FFE715E047F200003E
:100CF000C4F20000006800F4C060B0F5806F0AD054
:100D0000FFE747F20001C4F200010868022262F323
:100D10004A200860FFE7FFE700208DF80F00FFE79B
:100D20009DF80F0004B0704747F20000C4F20000C5
:100D3000006800F4C060704780B588B0079000205C
:100D40008DF813008DF812000798407800070028EE
:100D500048D5FFE70798406E0290C0B1FFE70298C0
:100D6000B0F5800F1BD0FFE70298B0F5000F05D05B
:100D7000FFE70298B0F5400F19D019E041F20C01DD
:100D8000C4F20201086840F48030086014E007985B
:100D90000430002101F0CCFB8DF813000CE0079823
:100DA0002030002101F00AFD8DF8130004E003E07B
:100DB00001208DF81300FFE79DF8130060B9FFE7ED
:100DC00041F28801C4F20201086820F44000079A49
:100DD000526E1043086004E09DF813008DF8120075
:100DE000FFE7FFE707984078C006002848D5FFE7EF
:100DF0000798806E0190C0B1FFE70198B0F1807F45
:100E00001BD0FFE70198B0F1007F05D0FFE7019804
:100E1000B0F1407F19D019E041F20C01C4F2020197
:100E2000086840F48030086014E00798043000211E
:100E300001F07EFB8DF813000CE0079820300021B4
:100E400001F0BCFC8DF8130004E003E001208DF8F4
:100E50001300FFE79DF8130060B9FFE741F2880136
:100E6000C4F20201086820F04070079A926E1043A5
:100E7000086004E09DF813008DF81200FFE7FFE71B
:100E8000079880788007002840F1B780FFE70020AE
:100E90008DF8110041F25800C4F202000068C00051
:100EA000002813D4FFE7FFE741F25800C4F2020024
:100EB000016841F080510160006800F080500390AB
:100EC0000398FFE701208DF81100FFE747F20001CA
:100ED000C4F20001086840F480700860FFF78AFCE3
:100EE0000590FFE747F20000C4F200000068C0056B
:100EF00000280CD4FFE7FFF77DFC0599401A032872
:100F000004D3FFE703208DF8130000E0EAE79DF823
:100F1000130000285DD1FFE741F29000C4F2020007
:100F2000006800F4407006900698D0B1FFE706987C
:100F30000799D1F88410884213D0FFE741F290015D
:100F4000C4F20201086820F440700690086840F47A
:100F500080300860086820F48030086006980860D7
:100F6000FFE79DF81800C007E0B1FFE7FFF742FC7C
:100F70000590FFE741F29000C4F20200006880078C
:100F800000280ED4FFE7FFF735FC0599401A41F21F
:100F90008931884204D3FFE703208DF8130000E075
:100FA000E8E7FFE79DF8130068B9FFE741F2900119
:100FB000C4F20201086820F44070079AD2F8842035
:100FC0001043086004E09DF813008DF81200FFE75D
:100FD00004E09DF813008DF81200FFE79DF8110062
:100FE000012809D1FFE741F25801C4F20201086863
:100FF00020F080500860FFE7FFE707980078C007FF
:1010000060B1FFE741F28801C4F20201086820F0F4
:101010000300079A926B10430860FFE70798007877
:10102000800700280CD5FFE741F28801C4F20201D5
:10103000086820F00C00079AD26B10430860FFE7A5
:1010400007980078400700280CD5FFE741F2880197
:10105000C4F20201086820F03000079A126C1043B5
:101060000860FFE707980078000700280CD5FFE725
:1010700041F28801C4F20201086820F0C000079A1A
:10108000526C10430860FFE707980078C0060028FC
:101090000CD5FFE741F28801C4F20201086820F490
:1010A0004070079A926C10430860FFE70798007839
:1010B000800600280CD5FFE741F28801C4F2020146
:1010C000086820F44060079AD26C10430860FFE77C
:1010D00007984078800700280CD5FFE741F2880187
:1010E000C4F20201086820F44020079AD26D104330
:1010F0000860FFE707984078400700280CD5FFE715
:1011000041F28801C4F20201086820F44010079AF5
:10111000126E10430860FFE7079800784006002829
:101120000CD5FFE741F28801C4F20201086820F4FF
:101130004050079A126D10430860FFE70798007847
:10114000000600280CD5FFE741F28801C4F2020135
:10115000086820F44040079A526D10430860FFE78A
:1011600007984078C00760B1FFE741F28801C4F2F8
:101170000201086820F44030079A926D104308601D
:10118000FFE7079840788006002833D5FFE741F253
:101190008801C4F20201086820F04060079AD26E0C
:1011A000104308600798C06EB0F1006F09D1FFE7E7
:1011B00041F20C01C4F20201086840F4801008609A
:1011C00017E00798C06EB0F1806F11D1FFE7079864
:1011D0000430012101F0ACF98DF813009DF81300E3
:1011E00028B1FFE79DF813008DF81200FFE7FFE735
:1011F000FFE7FFE7079880780007002834D5FFE76E
:1012000041F28801C4F20201086820F04060079AA8
:10121000126F104308600798006FB0F1006F09D19A
:10122000FFE741F20C01C4F20201086840F48010AB
:10123000086018E00798006FB0F1806F11D1FFE7E8
:1012400007980430012101F073F98DF813009DF81F
:10125000130028B1FFE79DF813008DF81200FFE797
:1012600000E0FFE7FFE7FFE70798807840070028E6
:1012700034D5FFE741F28801C4F20201086820F08A
:101280004060079A526F104308600798406FB0F1B2
:10129000006F09D1FFE741F20C01C4F202010868B6
:1012A00040F48010086018E00798406FB0F1806F3C
:1012B00011D1FFE707980430012101F039F98DF8C9
:1012C00013009DF8130028B1FFE79DF813008DF877
:1012D0001200FFE700E0FFE7FFE7FFE7079840782D
:1012E000400600283BD5FFE741F28801C4F2020125
:1012F000086820F04050079A926F104308600798E2
:10130000806FB0F1805F11D1FFE7079804300221B0
:1013100001F00EF98DF813009DF8130028B1FFE7D6
:101320009DF813008DF81200FFE717E00798806F13
:10133000B0F1005F11D1FFE707982030022101F0E2
:101340003DFA8DF813009DF8130028B1FFE79DF8D2
:1013500013008DF81200FFE7FFE7FFE7FFE70798AC
:101360004078000600280CD5FFE741F28801C4F25E
:101370000201086820F08040079AD26F104308608D
:10138000FFE707988078C00768B1FFE741F288015E
:10139000C4F20201086820F00040079AD2F88020C9
:1013A00010430860FFE79DF8120008B080BD000000
:1013B00080B586B004900391049820B9FFE701201E
:1013C0008DF8170015E1039842F20001C4F2020102
:1013D000096801F00701884216D9FFE742F20000D0
:1013E000C4F20200016821F00701039A1143016071
:1013F000006800F007000399884204D0FFE701204D
:101400008DF81700F5E0FFE704980078C007002882
:1014100073D0FFE70498406803280ED1FFE741F23C
:101420000000C4F2020000688001002804D4FFE735
:1014300001208DF81700DCE034E0049840680228B1
:101440000ED1FFE741F20000C4F202000068800301
:10145000002804D4FFE701208DF81700C9E020E040
:101460000498406870B9FFE741F20000C4F202003E
:1014700000688007002804D4FFE701208DF81700DA
:10148000B7E00DE041F20000C4F202000068400540
:10149000002804D4FFE701208DF81700A9E0FFE73A
:1014A000FFE7FFE741F20801C4F20201086820F0FB
:1014B0000300049A526810430860FFF79BF90290FA
:1014C000FFE741F20800C4F20200006800F00C00DF
:1014D00004994968B0EB810F0ED0FFE7FFF78AF956
:1014E0000299401A41F28931884204D3FFE7032070
:1014F0008DF817007DE0E4E7FFE7049800788007A7
:1015000000280CD5FFE741F20801C4F20201086887
:1015100020F0F000049A926810430860FFE70398F7
:1015200042F20001C4F20201096801F00701884299
:1015300016D2FFE742F20000C4F20200016821F077
:101540000701039A11430160006800F00700039946
:10155000884204D0FFE701208DF8170049E0FFE73B
:1015600004980078400700280CD5FFE741F20801F5
:10157000C4F20201086820F4E060049AD2681043C3
:101580000860FFE704980078000700280DD5FFE702
:1015900041F20801C4F20201086820F46050049A84
:1015A000126940EAC2000860FFE700F027F841F244
:1015B0000801C4F202010968C9B20A0942F646519B
:1015C000C0F60001895C01F01F01C84040F2000133
:1015D000C2F20001086040F20800C2F20000006898
:1015E000FFF7A8FA8DF807009DF807008DF817009F
:1015F000FFE79DF8170006B080BD000089B000200D
:101600000890079041F20800C4F20200006800F060
:101610000C00029041F20C00C4F20200006800F0DD
:1016200003000190029840B1FFE702980C282ED1E8
:10163000FFE7019801282AD1FFE741F20000C4F238
:10164000020000680007002809D4FFE741F2940077
:10165000C4F202000068C0F30320089008E041F2E1
:101660000000C4F202000068C0B200090890FFE761
:10167000089942F65850C0F6000050F82100089032
:10168000029818B9FFE708980790FFE716E002985C
:10169000042806D1FFE742F20040C0F2F4000790B0
:1016A0000BE00298082806D1FFE741F20020C0F2C3
:1016B0007A00079000E0FFE7FFE7FFE702980C28B9
:1016C00046D1FFE741F20C00C4F20200006800F0CE
:1016D0000300059005980090012814D0FFE70098BA
:1016E000022804D0FFE70098032806D00CE042F25D
:1016F0000040C0F2F400069009E041F20020C0F280
:101700007A00069003E0FFE708980690FFE741F2B1
:101710000C00C4F20200016801F07002012101EB2B
:101720001211039106990268C2F306225143039AEB
:10173000B1FBF2F10691006800F0C061022000EBFD
:101740001160049006980499B0FBF1F00790FFE750
:10175000079809B070470000B0B58AB008900898A3
:1017600028B9FFE701208DF8270000F0E9BC41F21D
:101770000800C4F20200006800F00C00059041F27D
:101780000C00C4F20200006800F003000490089806
:101790000078C006002840F12D81FFE7059850B180
:1017A000FFE705980C2840F0BD80FFE7049801286A
:1017B00040F0B880FFE741F20000C4F20200006888
:1017C0008007002809D5FFE70898806928B9FFE756
:1017D00001208DF8270000F0B3BC0898006A019042
:1017E00041F20000C4F2020000680007002809D599
:1017F000FFE741F20000C4F20200006800F0F000D0
:10180000009009E041F29400C4F20200006800F484
:10181000706000090090FFE701980099884229D97B
:10182000FFE70898006A01F0EFF828B1FFE7012010
:101830008DF8270000F084BCFFE741F20001C4F2FC
:101840000201086840F008000860086820F0F00015
:10185000089A126A10430860FFE741F20401C4F2DB
:101860000201086820F47F40089AD26940EA022009
:1018700008602CE0FFE741F20001C4F202010868B1
:1018800040F008000860086820F0F000089A126A2A
:1018900010430860FFE741F20401C4F20201086846
:1018A00020F47F40089AD26940EA02200860059837
:1018B00060B9FFE70898006A01F0A6F828B1FFE7D1
:1018C00001208DF8270000F03BBCFFE7FFE7FFF7A2
:1018D00095FE41F20801C4F202010968C9B20A0981
:1018E00042F64651C0F60001895C01F01F01C84074
:1018F00040F20001C2F20001086040F20800C2F2AA
:1019000000000068FFF716F98DF81B009DF81B001A
:1019100030B1FFE79DF81B008DF8270000F010BCE8
:10192000FFE766E00898806900283FD0FFE741F2B2
:101930000001C4F20201086840F001000860FEF7EF
:1019400059FF0790FFE741F20000C4F2020000686F
:10195000800700280CD4FFE7FEF74CFF0799401AD8
:10196000032804D3FFE703208DF82700E8E3EAE724
:10197000FFE741F20001C4F20201086840F00800EC
:101980000860086820F0F000089A126A10430860A6
:10199000FFE741F20401C4F20201086820F47F402D
:1019A000089AD26940EA0220086021E041F2000171
:1019B000C4F20201086820F001000860FEF71AFF77
:1019C0000790FFE741F20000C4F2020000688007C0
:1019D00000280CD5FFE7FEF70DFF0799401A0328F2
:1019E00004D3FFE703208DF82700A9E3EAE7FFE728
:1019F000FFE7FFE708980078C007002800F08B8019
:101A0000FFE70598082808D0FFE705980C2816D1AD
:101A1000FFE70498032812D1FFE741F20000C4F267
:101A2000020000688003002808D5FFE70898406896
:101A300020B9FFE701208DF8270081E36AE0FFE786
:101A400008984068B0F5803F09D1FFE741F20001F6
:101A5000C4F20201086840F48030086020E0089871
:101A60004068B0F5A02F0DD1FFE741F20001C4F2AC
:101A70000201086840F480200860086840F4803063
:101A800008600CE041F20001C4F20201086820F491
:101A900080300860086820F480200860FFE7FFE7D6
:101AA000FFE708984068D0B1FFE7FEF7A3FE079074
:101AB000FFE741F20000C4F2020000688003002842
:101AC0000CD4FFE7FEF796FE0799401A652804D369
:101AD000FFE703208DF8270032E3EAE719E0FEF77D
:101AE00089FE0790FFE741F20000C4F2020000689F
:101AF000800300280CD5FFE7FEF77CFE0799401A0B
:101B0000652804D3FFE703208DF8270018E3EAE7F0
:101B1000FFE7FFE7FFE7089800788007002840F11B
:101B20008280FFE70598042808D0FFE705980C2875
:101B300023D1FFE7049802281FD1FFE741F20000FC
:101B4000C4F2020000684005002808D5FFE70898A5
:101B5000C06820B9FFE701208DF82700F0E241F2CC
:101B60000401C4F20201086820F0F850089A1269D2
:101B700040EA02600860FFE754E00898C06870B36C
:101B8000FFE741F20001C4F20201086840F48070EE
:101B90000860FEF72FFE0790FFE741F20000C4F255
:101BA00002000068400500280CD4FFE7FEF722FE83
:101BB0000799401A032804D3FFE703208DF8270074
:101BC000BEE2EAE741F20401C4F20201086820F033
:101BD000F850089A126940EA0260086021E041F278
:101BE0000001C4F20201086820F480700860FEF76A
:101BF00001FE0790FFE741F20000C4F20200006816
:101C0000400500280CD5FFE7FEF7F4FD0799401AC0
:101C1000032804D3FFE703208DF8270090E2EAE7CA
:101C2000FFE7FFE7FFE7089800780007002849D59D
:101C3000FFE70898406910B3FFE741F29401C4F24E
:101C40000201086840F001000860FEF7D3FD07902C
:101C5000FFE741F29400C4F2020000688007002808
:101C60000CD4FFE7FEF7C6FD0799401A032804D3FA
:101C7000FFE703208DF8270062E2EAE721E041F266
:101C80009401C4F20201086820F001000860FEF728
:101C9000B1FD0790FFE741F29400C4F20200006832
:101CA000800700280CD5FFE7FEF7A4FD0799401A2E
:101CB000032804D3FFE703208DF8270040E2EAE77A
:101CC000FFE7FFE7089800784007002840F1C6804A
:101CD000FFE700208DF80F0041F25800C4F2020027
:101CE0000068C000002813D4FFE7FFE741F2580066
:101CF000C4F20200016841F080510160006800F008
:101D0000805002900298FFE701208DF80F00FFE756
:101D100047F20000C4F200000068C005002822D489
:101D2000FFE747F20001C4F20001086840F4807048
:101D30000860FEF75FFD0790FFE747F20000C4F27E
:101D400000000068C00500280CD4FFE7FEF752FD34
:101D50000799401A032804D3FFE703208DF82700D2
:101D6000EEE1EAE7FFE7FFE708988068012809D17C
:101D7000FFE741F29001C4F20201086840F001005F
:101D800008601FE00898806805280DD1FFE741F240
:101D90009001C4F20201086840F00400086008687D
:101DA00040F0010008600CE041F29001C4F2020131
:101DB000086820F001000860086820F0040008604E
:101DC000FFE7FFE7FFE708988068E0B1FFE7FEF76D
:101DD00011FD0790FFE741F29000C4F20200006895
:101DE000800700280ED4FFE7FEF704FD0799401A8C
:101DF00041F28931884204D3FFE703208DF82700A0
:101E00009EE1E8E71BE0FEF7F5FC0790FFE741F2F3
:101E10009000C4F202000068800700280ED5FFE79A
:101E2000FEF7E8FC0799401A41F28931884204D351
:101E3000FFE703208DF8270082E1E8E7FFE79DF840
:101E40000F00012809D1FFE741F25801C4F2020155
:101E5000086820F080500860FFE7FFE70898806A74
:101E6000002800F06981FFE70898806A022840F0A6
:101E70001E81FFE741F20C00C4F2020000680490EA
:101E8000049800F003000899C96A88423ED1FFE730
:101E9000049800F0700008990A6B6FF00F0101EBD5
:101EA0000211884232D1FFE7049800F4FE400899FD
:101EB000496BB0EB012F29D1FFE7049800F4003003
:101EC0000899896B073918BF012188421ED1FFE7A5
:101ED000049800F4C0000899CA6B0021CFF6E071A5
:101EE00001EA0251A1F5001188420FD1FFE70498E1
:101EF00000F0C06008990A6C4FF07E4101EA02616F
:101F000001F17E41884200F09D80FFE705980C2892
:101F100000F09380FFE741F20000C4F20200006885
:101F20004001002809D4FFE741F20000C4F202009A
:101F30000068C000002804D5FFE701208DF82700C5
:101F4000FEE041F20001C4F20201086820F0807056
:101F50000860FEF74FFC0790FFE741F20000C4F273
:101F600002000068800100280CD5FFE7FEF742FC64
:101F70000799401A032804D3FFE703208DF82700B0
:101F8000DEE0EAE741F20C01C4F20201086848F21F
:101F90008C02CFF69D121040089BDA6A1D6BD3F8B5
:101FA00034E0D3F838C06FF00F0404EB051422437B
:101FB00042EA0E22DC6B40F2000ECFF6E07E0EEA23
:101FC000045EAEF5001E42EA0E02D3F840E04FF088
:101FD0007E4303EA0E6303F17E431A430023CFF6E8
:101FE000FE7303EA4C331A431043086041F20002C7
:101FF000C4F20202106840F080701060086840F07F
:1020000080700860FEF7F6FB0790FFE741F20000E2
:10201000C4F202000068800100280CD4FFE7FEF73C
:10202000E9FB0799401A032804D3FFE703208DF842
:10203000270085E0EAE7FFE703E001208DF82700AD
:102040007EE033E041F20000C4F20200006880014B
:1020500000282AD4FFE741F20001C4F20201086817
:1020600040F08070086041F20C01C4F2020108687F
:1020700040F080700860FEF7BDFB0790FFE741F27B
:102080000000C4F202000068800100280CD4FFE7C1
:10209000FEF7B0FB0799401A032804D3FFE703209B
:1020A0008DF827004CE0EAE7FFE7FFE743E00598FB
:1020B0000C283BD0FFE741F20000C4F202000168A7
:1020C00021F080710160006810F0205F09D1FFE706
:1020D00041F20C01C4F20201086820F0030008601C
:1020E000FFE741F20C01C4F2020108684FF6FF72EB
:1020F000CFF6EE6210400860FEF77CFB0790FFE72A
:1021000041F20000C4F202000068800100280CD5F2
:10211000FFE7FEF76FFB0799401A032804D3FFE798
:1021200003208DF827000BE0EAE703E001208DF89B
:10213000270005E0FFE7FFE700208DF82700FFE715
:102140009DF827000AB0B0BD80B582B0019001981B
:1021500000F0E8FC02B080BDFFE7FEE780B586B086
:1021600000F0E2F800F0C8FC4FF09041086820F061
:1021700003000860086820F00C000860086820F080
:1021800030000860086820F0C0000860086820F48B
:10219000406008600C21C4F60001086820F00300CC
:1021A0000860086840F002000860086820F00C0031
:1021B0000860086840F008000860086820F03000F7
:1021C0000860086840F020000860086820F0C0003F
:1021D0000860086840F080000860086820F44060EB
:1021E0000860086840F40060086041F26001C4F2D1
:1021F0000201086840F0010008600821C4F20101F2
:10220000086820F00700086008680860086820F087
:102210007000086008680860086820F4E0600860E2
:1022200008680860086820F4E040086008680860F2
:102230000C21C4F20101086820F0700008600868F1
:10224000086040F20841C4F20101086840F0010052
:102250000860086840F002000860086840F0040068
:102260000860086840F008000860086840F0200036
:10227000086040F20C41C4F20101086820F001003E
:102280000860086820F002000860086820F0040078
:102290000860086820F008000860086820F0200046
:1022A000086040F20041C4F20101086840F00100FA
:1022B0000860086840F002000860086840F0040008
:1022C0000860086840F008000860086840F02000D6
:1022D0000860062000900221049100F0B5FC0098EF
:1022E00000F092FC04990720019000F0ADFC0198E9
:1022F00000F08AFC04990820029000F0A5FC0298E6
:1023000000F082FC04990920039000F09DFC0398E2
:1023100000F07AFC04991720059000F095FC0598D0
:1023200000F072FC06B080BD41F24C01C4F2020123
:10233000086840F01200086040F20041C4F6000155
:10234000086820F030000860086840F0100008605D
:1023500040F20841C4F60001086820F0300008602F
:10236000086840F03000086040F20441C4F6000103
:10237000086820F00400086040F20C41C4F6000137
:10238000086820F03000086041F20001C4F6000146
:10239000086820F440300860086840F48030086025
:1023A00041F20801C4F60001086820F440300860DA
:1023B000086840F44030086041F20401C4F60001AE
:1023C000086820F48070086041F20C01C4F6000136
:1023D000086820F4403008607047000080B588B07D
:1023E000002007900690059004900390FFE741F2CB
:1023F0004C00C4F20200016841F001010160006874
:1024000000F0010002900298FFE7FFE741F24C0064
:10241000C4F20200016841F002010160006800F0AE
:10242000020001900198FFE72F2003900020C1F2E5
:1024300011000490002005904FF0904003A9FDF793
:10244000F7FF08B080BD000080B582B040F2700098
:10245000C2F20000019045F20041C4F200010160A7
:1024600004214160002181600122C260016141615B
:102470008161C1610162FEF761FA18B1FFE7FDF702
:10248000C9FFFFE740F27000C2F200000021FEF732
:10249000B7F918B1FFE7FDF7BDFFFFE740F27000A5
:1024A000C2F200000021FEF7F7F918B1FFE7FDF7CF
:1024B000B1FFFFE702B080BDFFE7FEE7FFE7FEE701
:1024C00088B0079006910592079800F007000490E5
:1024D0000498C0F10700052803D3FFE7042001900A
:1024E00004E00498C0F107000190FFE70198039011
:1024F00004980430062803D8FFE70020009003E08A
:10250000049803380090FFE700980290069803991A
:10251000012202FA01F101390840029B9840059915
:102520009A40013A1140084308B0704770470000D4
:1025300080B586B00590049100208DF80B0041F223
:102540000C00C4F202000068800720B3FFE741F2EC
:102550000C00C4F20200006800F00300059909684D
:10256000884213D1FFE70598006878B1FFE741F290
:102570000C00C4F20200006800F07001012000EBC2
:10258000111005994968884204D0FFE701208DF8B1
:102590000B00FFE75DE0059800680190012808D076
:1025A000FFE70198022812D0FFE7019803281CD00A
:1025B00033E041F20000C4F2020000688007002806
:1025C00004D4FFE701208DF80B00FFE729E041F27A
:1025D0000000C4F2020000684005002804D4FFE7B0
:1025E00001208DF80B00FFE71BE041F20000C4F270
:1025F00002000068800300280ED4FFE741F20000CB
:10260000C4F2020000684003002804D4FFE7012060
:102610008DF80B00FFE7FFE703E001208DF80B00CA
:10262000FFE79DF80B0098B9FFE741F20C01C4F2F7
:102630000201086820F07300059B1A68D3F804C0F3
:102640006FF00F0303EB0C131A4310430860FFE70E
:10265000FFE79DF80B00002840F0AC80FFE741F257
:102660000001C4F20201086820F080600860FEF7F3
:10267000C1F80390FFE741F20000C4F202000068D5
:10268000000100280CD5FFE7FEF7B4F80399401AC3
:10269000032804D3FFE703208DF80B0000E0EAE7EE
:1026A0009DF80B00002840F08480FFE70498C0B933
:1026B000FFE741F21001C4F20201086848F2FF028C
:1026C000CFF6FD721040059A9368D2F80CC0002234
:1026D000CFF6FE7202EA4C3242EA0322104308604F
:1026E00037E0049801281AD1FFE741F21001C4F243
:1026F0000201086848F2FF02CFF69F721040059A67
:102700009368D2F810C00022CFF6E07202EA0C52B1
:10271000A2F5001242EA03221043086018E041F2D9
:102720001001C4F20201086848F2FF02CFF6FF125E
:102730001040059A9368D2F814C04FF07E4202EA26
:102740000C6202F17E4242EA032210430860FFE776
:10275000FFE741F20001C4F20201086840F0806026
:102760000860FEF747F80390FFE741F20000C4F26B
:1027700002000068000100280CD4FFE7FEF73AF8D9
:102780000399401A032804D3FFE703208DF80B00B8
:1027900000E0EAE79DF80B0050B9FFE70598826971
:1027A00041F21001C4F20201086810430860FFE71B
:1027B000FFE7FFE79DF80B0006B080BD80B586B04F
:1027C0000590049100208DF80B0041F20C00C4F23A
:1027D00002000068800720B3FFE741F20C00C4F25A
:1027E0000200006800F0030005990968884213D1CF
:1027F000FFE70598006878B1FFE741F20C00C4F2EA
:102800000200006800F07001012000EB1110059932
:102810004968884204D0FFE701208DF80B00FFE7EC
:102820005DE0059800680190012808D0FFE7019855
:10283000022812D0FFE7019803281CD033E041F2B0
:102840000000C4F2020000688007002804D4FFE7FB
:1028500001208DF80B00FFE729E041F20000C4F2EF
:10286000020000684005002804D4FFE701208DF82D
:102870000B00FFE71BE041F20000C4F20200006819
:10288000800300280ED4FFE741F20000C4F20200EA
:1028900000684003002804D4FFE701208DF80B00F6
:1028A000FFE7FFE703E001208DF80B00FFE79DF84D
:1028B0000B0098B9FFE741F20C01C4F2020108686D
:1028C00020F07300059B1A68D3F804C06FF00F0363
:1028D00003EB0C131A4310430860FFE7FFE79DF872
:1028E0000B00002840F08C80FFE741F20001C4F2A9
:1028F0000201086820F080500860FDF77BFF03901C
:10290000FFE741F20000C4F20200006880000028E6
:102910000CD5FFE7FDF76EFF0399401A032804D397
:10292000FFE703208DF80B0000E0EAE79DF80B00BD
:10293000002864D1FFE70498C0B9FFE741F2140111
:10294000C4F20201086848F2FF02CFF6FD7210409F
:10295000059A9368D2F80CC00022CFF6FE7202EA04
:102960004C3242EA03221043086018E041F214019D
:10297000C4F20201086848F2FF02CFF6FF121040CD
:10298000059A9368D2F810C04FF07E4202EA0C62BA
:1029900002F17E4242EA032210430860FFE741F25F
:1029A0000001C4F20201086840F080500860FDF7A1
:1029B00021FF0390FFE741F20000C4F2020000682B
:1029C000800000280CD4FFE7FDF714FF0399401A9C
:1029D000032804D3FFE703208DF80B0000E0EAE7AB
:1029E0009DF80B0050B9FFE70598426941F21401C8
:1029F000C4F20201086810430860FFE7FFE7FFE741
:102A00009DF80B0006B080BD80B586B00490002014
:102A1000029041F25800C4F202000068C000002891
:102A200004D5FFE7FEF780F903901AE0FFE741F2D3
:102A30005800C4F20200016841F080510160006852
:102A400000F0805001900198FFE7FEF76DF90390C8
:102A500041F25801C4F20201086820F08050086079
:102A6000FFE70398B0F5007F10D1FFE704988128B5
:102A70000BD3FFE70498A12803D3FFE702200290BD
:102A800002E001200290FFE7FFE717E004988128A9
:102A900003D3FFE7032002900FE00498802803D1BE
:102AA000FFE70220029007E00498702803D1FFE7B7
:102AB00001200290FFE7FFE7FFE7FFE742F2000097
:102AC000C4F20200016821F00701029A114301607B
:102AD000006800F007000299884204D0FFE7012057
:102AE0008DF8170003E000208DF81700FFE79DF830
:102AF000170006B080BD000040F21441C4F600018A
:102B0000086840F0040008607047000040F214417B
:102B1000C4F60001086880F00400086070470000F7
:102B20007047000080B582B0009000980138B0F185
:102B3000807F03D3FFE70120019019E0009801385E
:102B40004EF21401CEF2000108604FF0FF300F2169
:102B500000F09CF84EF21801CEF20001002008604F
:102B60004EF21002CEF20002072111600190FFE741
:102B7000019802B080BD000080B5FDF7B5FF80BDB3
:102B800080B596B005A84421FDF76EFB00200490A7
:102B900003900290019000904FF40070FEF752F8FD
:102BA00018B1FFE7FDF736FCFFE710200590012084
:102BB0000B9000200C9060210D910F9005A8FEF75E
:102BC000CBFD18B1FFE7FDF725FCFFE70F200090D4
:102BD000002101910291039104916846FEF7E8FB00
:102BE00018B1FFE7FDF716FCFFE716B080BD000047
:102BF0004EF68851CEF20001086840F4700008607B
:102C000070470000FFE7FEE781B08DF803009DF9F3
:102C1000030000280ED4FFE79DF9031001F01F0206
:102C2000012090404A094EF20011CEF2000141F815
:102C30002200FFE701B070474EF60C50CEF20000C4
:102C40000068C0F30220704782B08DF80700009141
:102C50009DF9070000280AD4FFE7009800019DF9BC
:102C600007104EF20042CEF2000288540BE00098AA
:102C700000019DF8071001F00F014EF61452CEF23C
:102C800000028854FFE702B07047000082B08DF860
:102C9000070000919DF9070000280AD4FFE700987B
:102CA00000019DF907104EF20042CEF20002885456
:102CB0000BE0009800019DF8071001F00F014EF69F
:102CC0001452CEF200028854FFE702B070470000B1
:102CD00083B00290029800F0070000904EF60C516D
:102CE000CEF200010868019001984FF6FF021040F3
:102CF00001900198009A40EA02200022C0F2FA52A4
:102D0000104301900198086003B0704780B582B00D
:102D100000200190FDF7F6FEFFF732FFFFF75EFBA4
:102D2000FFF792FBFFF71AFAFFE7FEE7F1EE100A52
:102D30004FF6FF71C0F2C03120EA010040F0407050
:102D4000E1EE100A704700000000000000000102E0
:102D50000304060708090000A0860100400D0300D7
:102D6000801A060000350C0040420F0080841E00CF
:102D700000093D0000127A000024F40000366E01C4
:102D80000048E801006CDC02A82D000800000020CB
:102D90000C000000C4010008B42D00081000002041
:102DA000B0060000E001000800093D00010000003D
:042DB000100000000F
:0400000508000229C4
:00000001FF
