:020000040800F2
:10000000D00A002029020008F52800082D25000844
:10001000F12800088503000855370008000000009B
:100020000000000000000000000000007136000821
:10003000890300080000000065290008C93600088F
:10004000430200084302000843020008430200087C
:10005000430200084302000843020008430200086C
:10006000430200084302000843020008430200085C
:10007000430200084302000843020008430200084C
:10008000430200084302000843020008430200083C
:10009000430200084302000843020008430200082C
:1000A000430200084302000843020008430200081C
:1000B000430200084302000843020008430200080C
:1000C00043020008430200084302000843020008FC
:1000D00043020008430200084302000843020008EC
:1000E00043020008430200084302000843020008DC
:1000F00043020008430200084302000843020008CC
:1001000043020008430200084302000843020008BB
:1001100043020008430200084302000843020008AB
:10012000430200084302000843020008430200089B
:10013000430200084302000843020008430200088B
:10014000430200084302000843020008430200087B
:10015000430200084302000843020008430200086B
:10016000430200084302000843020008430200085B
:100170004302000843020008430200080000000098
:10018000430200084302000800F002F800F03CF8C7
:100190000AA090E8000C82448344AAF10107DA45E2
:1001A00001D100F031F8AFF2090EBAE80F0013F0F8
:1001B000010F18BFFB1A43F0010318473046000037
:1001C00050460000103A24BF78C878C1FAD85207C8
:1001D00024BF30C830C144BF04680C6070470000C1
:1001E0000023002400250026103A28BF78C1FBD840
:1001F000520728BF30C148BF0B6070471FB503F0DE
:1002000017FC1FBD10B510BD00F082F81146FFF7B6
:10021000F5FF03F07FFB00F0A0F803B4FFF7F2FF57
:1002200003BC00F0A7F800000948804709480047D0
:10023000FEE7FEE7FEE7FEE7FEE7FEE7FEE7FEE796
:10024000FEE7FEE704480549054A064B70470000F3
:100250004137000889010008D0040020D00A00209E
:10026000D0060020D006002002F0FF0343EA03225C
:1002700042EA024200F02CB84FF0000200B51346EB
:1002800094469646203922BFA0E80C50A0E80C50B6
:10029000B1F12001BFF4F7AF090728BFA0E80C5067
:1002A00048BF0CC05DF804EB890028BF40F8042B60
:1002B00008BF704748BF20F8022B11F0804F18BFCD
:1002C00000F8012B70477047704770474FF00002ED
:1002D0000429C0F0128010F0030C3FF4CFAFCCF132
:1002E000040CBCF1020F18BF00F8012BA8BF20F8C6
:1002F000022BA1EB0C01FFF7C1BF5FEAC17C24BF59
:1003000000F8012B00F8012B48BF00F8012B7047C3
:10031000754600F02BF8AE4605006946534620F0BE
:100320000700854618B020B5FFF78CFFBDE82040D8
:100330004FF000064FF000074FF000084FF0000BA1
:10034000AC46ACE8C009ACE8C009ACE8C009ACE810
:10035000C00921F007018D46704710B50446AFF380
:1003600000802046BDE81040FFF757BF00487047A7
:100370001800002001491820ABBEFEE7260002004D
:1003800070470000FFE7FEE77047000072B6FFE726
:10039000FEE700008CB00B900A9100200990FFE767
:1003A0000A9800680999C840002800F0D381FFE747
:1003B0000A980068099A012191400840089008981D
:1003C000002800F0C381FFE70A98406801280FD099
:1003D000FFE70A98406802280AD0FFE70A984068B9
:1003E000112805D0FFE70A98406812282FD1FFE7AF
:1003F0000B988068079009984100032000FA01F1EA
:100400000798884307900A98C0680999490000FA3C
:1004100001F107980843079007980B9988600B989B
:10042000406807900999012000FA01F10798884374
:1004300007900A984068C0F30010099900FA01F18A
:1004400007980843079007980B994860FFE70A98B8
:10045000406800F00300032818D1FFE70B98C06A3A
:1004600007900999012000FA01F107988843079045
:100470000A984068C0F3C000099900FA01F1079892
:100480000843079007980B99C862FFE70B98C0686C
:10049000079009984100032000FA01F1079888436A
:1004A00007900A9880680999490000FA01F10798B5
:1004B0000843079007980B99C8600A98406802287B
:1004C00005D0FFE70A984068122826D1FFE70B986D
:1004D00009996FF0030202EA51010844006A07908B
:1004E000099800F0070081000F2000FA01F1079839
:1004F000884307900A980069099901F0070189006B
:1005000000FA01F107980843079007980B99099B97
:1005100002EA530211440862FFE70B980068079053
:1005200009984100032000FA01F1079888430790D9
:100530000A98406800F003000999490000FA01F1A7
:1005400007980843079007980B9908600A98C079A4
:10055000C006002840F1F980FFE7FFE741F26000A4
:10056000C4F20200016841F001010160006800F07E
:10057000010006900698FFE7099820F00300082183
:10058000C4F2010140580790099800F0030081006F
:100590000F2000FA01F10798884307900B98B0F1FB
:1005A000904F03D1FFE70020059050E00B9840F2F8
:1005B0000041C4F60001884203D1FFE70120049006
:1005C00042E00B9840F60001C4F60001884203D1D6
:1005D000FFE70220039034E00B9840F60041C4F698
:1005E0000001884203D1FFE70320029026E00B9828
:1005F00041F20001C4F60001884203D1FFE7042064
:10060000019018E00B9841F20041C4F600018842C5
:1006100003D1FFE7052000900AE00B9941F60002A4
:10062000C4F600020720914208BF06200090FFE7B1
:1006300000980190FFE701980290FFE7029803906D
:10064000FFE703980490FFE704980590FFE70598FB
:10065000099901F00301890000FA01F107980843A4
:1006600007900798099921F003010822C4F20102BA
:10067000885040F20040C4F20100006807900899D9
:100680000798884307900A988079C00728B1FFE748
:100690000899079808430790FFE7079840F2004140
:1006A000C4F20101086040F20440C4F20100006895
:1006B000079008990798884307900A9880798007DF
:1006C000002805D5FFE70899079808430790FFE73A
:1006D000079840F20441C4F20101086040F208406A
:1006E000C4F20100006807900899079888430790B2
:1006F0000A988079C006002805D5FFE70899079871
:1007000008430790FFE7079840F20841C4F201014F
:10071000086040F20C40C4F201000068079008999C
:100720000798884307900A9880798006002805D5A5
:10073000FFE70899079808430790FFE7079840F2FA
:100740000C41C4F201010860FFE7FFE7099801309E
:10075000099025E60CB0704740F2CC40C2F2000090
:100760000068704783B001900091019890F84100B3
:1007700020283BD1FFE7FFE7019890F840000128CF
:1007800004D1FFE702208DF80B0033E0019901202E
:1007900081F84000FFE7FFE70199242081F841003C
:1007A00001980168086820F001000860019801685C
:1007B000086820F480500860009A01980168086871
:1007C0001043086001980168086840F00100086063
:1007D0000199202081F84100FFE70199002081F86C
:1007E0004000FFE700208DF80B0003E002208DF8A9
:1007F0000B00FFE79DF80B0003B0704784B0029038
:100800000191029890F84100202840D1FFE7FFE7CE
:10081000029890F84000012804D1FFE702208DF8EB
:100820000F0038E00299012081F84000FFE7FFE760
:100830000299242081F8410002980168086820F09C
:10084000010008600298006800680090009820F499
:10085000706000900199009840EA01200090009893
:1008600002990968086002980168086840F0010070
:1008700008600299202081F84100FFE702990020DA
:1008800081F84000FFE700208DF80F0003E0022010
:100890008DF80F00FFE79DF80F0004B070470000CF
:1008A00080B582B00090009820B9FFE701208DF854
:1008B000070073E0009890F8410040B9FFE7009905
:1008C000002081F84000009800F0A4FAFFE70099AA
:1008D000242081F8410000980168086820F0010098
:1008E000086000980168406820F070600861009816
:1008F0000168886820F4004088600098C06801287A
:1009000007D1FFE700980168806840F400408860E4
:1009100006E000980168806840F404408860FFE7C2
:100920000098C068022806D1FFE7009801684FF4DC
:1009300000604860FFE700980168486848F20002DC
:10094000C0F200221043486000980168C86820F493
:100950000040C860009A1168106953699269184391
:1009600040EA0220C860009A1168D069126A1043F8
:10097000086000980168086840F00100086000996C
:1009800000204864009A202182F8411000990863F1
:10099000009981F842008DF80700FFE79DF80700F5
:1009A00002B080BD80B58CB00A90ADF826100892D8
:1009B0000793002005900A9890F84100202840F005
:1009C0001281FFE70A980068806981B20120B0EBCC
:1009D000D13F04D1FFE702208DF82F0007E1FFE7A8
:1009E0000A9890F84000012804D1FFE702208DF812
:1009F0002F00FCE00A99012081F84000FFE7FFE7A3
:100A00000A99242081F841000A9900204864FFE7F0
:100A10000A98C068012808D1FFE7BDF8260048F20F
:100A2000080161F39F20039006E0BDF826000A212B
:100A300061F39F200390FFE703980A9909684860D3
:100A4000FFF78AFE06900A9800688069C0F340109C
:100A50008DF813000A9800688069C0F300108DF8C3
:100A60001200FFE79DF813100020029039B9FFE74C
:100A70009DF81200B0FA80F040090290FFE702985A
:100A8000C00790B3FFE707980130F8B1FFE7FFF721
:100A900063FE0699401A0799884203D8FFE7079832
:100AA00098B9FFE70A99202081F841000A99486C1B
:100AB00040F020004864FFE70A99002081F84000D8
:100AC000FFE701208DF82F0091E0FFE70A9800680A
:100AD0008069C0F340108DF813000A98006880699F
:100AE000C0F300108DF81200BCE70A980068806916
:100AF00000F010010020B0EB111F20D1FFE70A9891
:100B0000079B06996A4611602021002201F0CCFD66
:100B100020B1FFE701208DF82F0068E00A980168F6
:100B20002020C8610A9981F84100FFE70A99002056
:100B300081F84000FFE700208DF82F0057E00A9869
:100B4000079B06996A4611602021002201F0ACFD46
:100B500020B1FFE701208DF82F0048E00A980168D6
:100B60001020C8610A9801682020C861FFE7059835
:100B7000089988421AD1FFE70A980168486840F44A
:100B8000804048600A98079B06996A4611602021B8
:100B9000002201F089FD20B1FFE701208DF82F0030
:100BA00025E00A9801682020C861FFE70598013018
:100BB0000590FFE7059808998842FFF429AFFFE701
:100BC0000A99202081F841000A99486C40F02000E1
:100BD0004864FFE70A99002081F84000FFE7012000
:100BE0008DF82F0003E002208DF82F00FFE79DF81D
:100BF0002F000CB080BD000080B588B0DDF828C0A3
:100C00000690ADF816100492ADF80E30069890F8E4
:100C10004100202840F0F580FFE7FFE7069890F8B4
:100C20004000012804D1FFE702208DF81F00ECE00E
:100C30000699012081F84000FFE7FFE7FFF78CFDF0
:100C40000290069802996A4611604FF40041012211
:100C5000192301F029FD20B1FFE701208DF81F00C5
:100C6000D3E00699212081F841000699102081F8EF
:100C700042000699002048640499069A5162BDF822
:100C80000E10069A5185069948630698408DB0F576
:100C9000807F14D3FFE70699FF2008850698BDF8EA
:100CA000161090F82820EC4642F20003C8F2000328
:100CB000CCF800304FF0807301F0D0FC14E00698BF
:100CC000408D069908850698BDF8161090F82820E2
:100CD000EC4642F20003C8F20003CCF800304FF0BB
:100CE000007301F0BBFCFFE7FFE70698408D00288A
:100CF0005ED0FFE706980A99029A01F063FD20B1E1
:100D0000FFE701208DF81F007FE006980168406A28
:100D1000007888620699486A013048620699488DD1
:100D2000013848850699088D013808850698408D58
:100D3000E8B3FFE70698008DC8BBFFE706980A9B5B
:100D400002996A4611608021002201F0ADFC20B1B9
:100D5000FFE701208DF81F0057E00698408DB0F5A1
:100D6000807F11D3FFE70699FF2008850698BDF81C
:100D7000161090F82820EC460023CCF800304FF0F5
:100D8000807301F06BFC11E00698408D0699088590
:100D90000698BDF8161090F82820EC460023CCF8F1
:100DA00000304FF0007301F059FCFFE7FFE79CE7CC
:100DB00006980A99029A01F0BFFC20B1FFE70120D2
:100DC0008DF81F0021E0069801682020C86106996F
:100DD0000A6851684EF60003CFF60063194051606F
:100DE000069981F841000699002081F84200FFE74A
:100DF0000699002081F84000FFE700208DF81F00D1
:100E000003E002208DF81F00FFE79DF81F0008B0E7
:100E100080BD000080B5AAB02990002028902790BE
:100E200026902590249002A88821FFF725FA29987A
:100E3000006845F20041C4F2000188423CD1FFE75E
:100E4000402002900020169002A800F05FF918B12F
:100E5000FFE7FFF79BFAFFE7FFE741F24C00C4F220
:100E60000200016841F002010160006800F0020028
:100E700001900198FFE7C0202490122025900020C7
:100E80002690032027900420289040F20040C4F6CA
:100E9000000024A9FFF77EFAFFE741F25800C4F2F0
:100EA0000200016841F400110160006800F40010C4
:100EB00000900098FFE7FFE72AB080BD40F20C00E9
:100EC000C2F20000027840F2CC41C2F20001086890
:100ED000104408607047000080B582B000208DF893
:100EE0000700032000F090F80F2000F00DF820B16B
:100EF000FFE701208DF8070002E000F049F8FFE766
:100F00009DF8070002B080BD80B582B0019000203E
:100F10008DF8030040F20C00C2F20000007878B3B4
:100F2000FFE740F20800C2F20000006840F20C0146
:100F3000C2F200010A784FF47A71B1FBF2F1B0FB12
:100F4000F1F001F0EBFAB0B9FFE701980F280DD8E6
:100F5000FFE701994FF0FF30002200F03BF80198C5
:100F600040F21001C2F20001086003E001208DF898
:100F70000300FFE703E001208DF80300FFE703E033
:100F800001208DF80300FFE79DF8030002B080BD4B
:100F900082B0FFE741F26000C4F20200016841F054
:100FA00001010160006800F0010001900198FFE775
:100FB000FFE741F25800C4F20200016841F080519D
:100FC0000160006800F0805000900098FFE702B0D8
:100FD0007047000080B586B08DF817000491039229
:100FE0000020029002F0B8FB02909DF917000190DA
:100FF00002980499039A01F07FFC0146019802F0DF
:10100000B3FB06B080BD000080B582B001900198AE
:1010100002F0CCFB02B080BD84B002900298B0F523
:10102000007F4DD1FFE747F20000C4F200000068E6
:1010300000F4C060B0F5007F41D0FFE747F2000246
:10104000C4F200021168012060F34A21116040F2ED
:101050000801C2F200010968322251434DF6836251
:10106000C4F21B32A1FB022100EB91400190FFE78B
:1010700047F21400C4F2000001680020490500296D
:10108000009006D5FFE70198002818BF01200090C6
:10109000FFE70098C00720B1FFE7019801380190F1
:1010A000E6E747F21400C4F200000068400500289B
:1010B00004D5FFE703208DF80F001BE0FFE715E0E4
:1010C00047F20000C4F20000006800F4C060B0F510
:1010D000806F0AD0FFE747F20001C4F20001086800
:1010E000022262F34A200860FFE7FFE700208DF844
:1010F0000F00FFE79DF80F0004B0704747F20000B3
:10110000C4F20000006800F4C060704780B588B089
:10111000079000208DF813008DF812000798407892
:101120000007002848D5FFE70798406E0290C0B13D
:10113000FFE70298B0F5800F1BD0FFE70298B0F5EB
:10114000000F05D0FFE70298B0F5400F19D019E065
:1011500041F20C01C4F20201086840F480300860DA
:1011600014E007980430002101F0FEFB8DF8130015
:101170000CE007982030002101F03CFD8DF81300B1
:1011800004E003E001208DF81300FFE79DF8130051
:1011900060B9FFE741F28801C4F20201086820F457
:1011A0004000079A526E1043086004E09DF8130057
:1011B0008DF81200FFE7FFE707984078C006002887
:1011C00048D5FFE70798806E0190C0B1FFE701980E
:1011D000B0F1807F1BD0FFE70198B0F1007F05D010
:1011E000FFE70198B0F1407F19D019E041F20C01FE
:1011F000C4F20201086840F48030086014E00798E7
:101200000430002101F0B0FB8DF813000CE00798CA
:101210002030002101F0EEFC8DF8130004E003E023
:1012200001208DF81300FFE79DF8130060B9FFE778
:1012300041F28801C4F20201086820F04070079A68
:10124000926E1043086004E09DF813008DF81200C0
:10125000FFE7FFE7079880788007002840F1B78014
:10126000FFE700208DF8110041F25800C4F202009F
:101270000068C000002813D4FFE7FFE741F25800E0
:10128000C4F20200016841F080510160006800F082
:10129000805003900398FFE701208DF81100FFE7CD
:1012A00047F20001C4F20001086840F48070086051
:1012B000FFF752FA0590FFE747F20000C4F2000082
:1012C0000068C00500280CD4FFE7FFF745FA059930
:1012D000401A032804D3FFE703208DF8130000E031
:1012E000EAE79DF8130000285DD1FFE741F2900086
:1012F000C4F20200006800F4407006900698D0B175
:10130000FFE706980799D1F88410884213D0FFE7C9
:1013100041F29001C4F20201086820F44070069086
:10132000086840F480300860086820F48030086065
:1013300006980860FFE79DF81800C007E0B1FFE7D6
:10134000FFF70AFA0590FFE741F29000C4F20200AD
:101350000068800700280ED4FFE7FFF7FDF9059924
:10136000401A41F28931884204D3FFE703208DF807
:10137000130000E0E8E7FFE79DF8130068B9FFE716
:1013800041F29001C4F20201086820F44070079A0B
:10139000D2F884201043086004E09DF813008DF813
:1013A0001200FFE704E09DF813008DF81200FFE73C
:1013B0009DF81100012809D1FFE741F25801C4F25C
:1013C0000201086820F080500860FFE7FFE70798F7
:1013D0000078C00760B1FFE741F28801C4F2020162
:1013E000086820F00300079A926B10430860FFE73B
:1013F00007980078800700280CD5FFE741F28801A4
:10140000C4F20201086820F00C00079AD26B104366
:101410000860FFE707980078400700280CD5FFE731
:1014200041F28801C4F20201086820F03000079AF6
:10143000126C10430860FFE7079800780007002847
:101440000CD5FFE741F28801C4F20201086820F0E0
:10145000C000079A526C10430860FFE707980078B5
:10146000C00600280CD5FFE741F28801C4F2020152
:10147000086820F44070079A926C10430860FFE7F8
:1014800007980078800600280CD5FFE741F2880114
:10149000C4F20201086820F44060079AD26C10433D
:1014A0000860FFE707984078800700280CD5FFE721
:1014B00041F28801C4F20201086820F44020079A32
:1014C000D26D10430860FFE7079840784007002876
:1014D0000CD5FFE741F28801C4F20201086820F44C
:1014E0004010079A126E10430860FFE707980078D3
:1014F000400600280CD5FFE741F28801C4F2020142
:10150000086820F44050079A126D10430860FFE706
:1015100007980078000600280CD5FFE741F2880103
:10152000C4F20201086820F44040079A526D10434B
:101530000860FFE707984078C00760B1FFE741F215
:101540008801C4F20201086820F44030079A926DC5
:1015500010430860FFE7079840788006002833D5DD
:10156000FFE741F28801C4F20201086820F0406000
:10157000079AD26E104308600798C06EB0F1006FF2
:1015800009D1FFE741F20C01C4F20201086840F4FE
:101590008010086017E00798C06EB0F1806F11D11D
:1015A000FFE707980430012101F0DEF98DF8130000
:1015B0009DF8130028B1FFE79DF813008DF8120085
:1015C000FFE7FFE7FFE7FFE70798807800070028BD
:1015D00034D5FFE741F28801C4F20201086820F027
:1015E0004060079A126F104308600798006FB0F1CF
:1015F000006F09D1FFE741F20C01C4F20201086853
:1016000040F48010086018E00798006FB0F1806F18
:1016100011D1FFE707980430012101F0A5F98DF8F9
:1016200013009DF8130028B1FFE79DF813008DF813
:101630001200FFE700E0FFE7FFE7FFE70798807889
:101640004007002834D5FFE741F28801C4F20201C7
:10165000086820F04060079A526F104308600798AE
:10166000406FB0F1006F09D1FFE741F20C01C4F205
:101670000201086840F48010086018E00798406F85
:10168000B0F1806F11D1FFE707980430012101F01C
:101690006BF98DF813009DF8130028B1FFE79DF852
:1016A00013008DF81200FFE700E0FFE7FFE7FFE718
:1016B00007984078400600283BD5FFE741F28801B3
:1016C000C4F20201086820F04050079A926F10435C
:1016D00008600798806FB0F1805F11D1FFE707982D
:1016E0000430022101F040F98DF813009DF8130039
:1016F00028B1FFE79DF813008DF81200FFE717E00F
:101700000798806FB0F1005F11D1FFE70798203094
:10171000022101F06FFA8DF813009DF8130028B133
:10172000FFE79DF813008DF81200FFE7FFE7FFE7E2
:10173000FFE707984078000600280CD5FFE741F244
:101740008801C4F20201086820F08040079AD26F35
:1017500010430860FFE707988078C00768B1FFE78B
:1017600041F28801C4F20201086820F00040079AA3
:10177000D2F8802010430860FFE79DF8120008B0FF
:1017800080BD000080B586B004900391049820B914
:10179000FFE701208DF8170015E1039842F20001E0
:1017A000C4F20201096801F00701884216D9FFE777
:1017B00042F20000C4F20200016821F00701039A1E
:1017C00011430160006800F007000399884204D0CB
:1017D000FFE701208DF81700F5E0FFE70498007897
:1017E000C007002873D0FFE70498406803280ED193
:1017F000FFE741F20000C4F2020000688001002807
:1018000004D4FFE701208DF81700DCE034E00498F1
:10181000406802280ED1FFE741F20000C4F2020046
:1018200000688003002804D4FFE701208DF817002A
:10183000C9E020E00498406870B9FFE741F2000079
:10184000C4F2020000688007002804D4FFE70120EA
:101850008DF81700B7E00DE041F20000C4F202007D
:1018600000684005002804D4FFE701208DF8170028
:10187000A9E0FFE7FFE7FFE741F20801C4F2020138
:10188000086820F00300049A526810430860FEF7CD
:1018900063FF0290FFE741F20800C4F20200006813
:1018A00000F00C0004994968B0EB810F0ED0FFE7FF
:1018B000FEF752FF0299401A41F28931884204D35F
:1018C000FFE703208DF817007DE0E4E7FFE70498C9
:1018D0000078800700280CD5FFE741F20801C4F228
:1018E0000201086820F0F000049A92681043086032
:1018F000FFE7039842F20001C4F20201096801F017
:101900000701884216D2FFE742F20000C4F202004B
:10191000016821F00701039A11430160006800F09B
:1019200007000399884204D0FFE701208DF81700D3
:1019300049E0FFE704980078400700280CD5FFE74E
:1019400041F20801C4F20201086820F4E060049A40
:10195000D26810430860FFE7049800780007002869
:101960000DD5FFE741F20801C4F20201086820F436
:101970006050049A126940EAC2000860FFE700F074
:1019800027F841F20801C4F202010968C9B20A0944
:1019900043F64A21C0F60001895C01F01F01C840EE
:1019A00040F20801C2F20001086040F21000C2F2E9
:1019B00000000068FFF7A8FA8DF807009DF80700FF
:1019C0008DF81700FFE79DF8170006B080BD0000F6
:1019D00089B000200890079041F20800C4F202008C
:1019E000006800F00C00029041F20C00C4F202000A
:1019F000006800F003000190029840B1FFE70298F0
:101A00000C282ED1FFE7019801282AD1FFE741F2E7
:101A10000000C4F2020000680007002809D4FFE7B4
:101A200041F29400C4F202000068C0F30320089061
:101A300008E041F20000C4F202000068C0B20009F0
:101A40000890FFE7089944F2B870C0F6000050F81B
:101A500021000890029818B9FFE708980790FFE75F
:101A600016E00298042806D1FFE742F20040C0F2D7
:101A7000F40007900BE00298082806D1FFE741F236
:101A80000020C0F27A00079000E0FFE7FFE7FFE7E1
:101A900002980C2846D1FFE741F20C00C4F2020084
:101AA000006800F00300059005980090012814D00C
:101AB000FFE70098022804D0FFE70098032806D02B
:101AC0000CE042F20040C0F2F400069009E041F25E
:101AD0000020C0F27A00069003E0FFE70898069025
:101AE000FFE741F20C00C4F20200016801F070024D
:101AF000012101EB1211039106990268C2F306223B
:101B00005143039AB1FBF2F10691006800F0C06105
:101B1000022000EB1160049006980499B0FBF1F0EC
:101B20000790FFE7079809B070470000B0B58AB08A
:101B30000890089828B9FFE701208DF8270000F0E9
:101B4000E9BC41F20800C4F20200006800F00C0099
:101B5000059041F20C00C4F20200006800F003009E
:101B6000049008980078C006002840F12D81FFE716
:101B7000059850B1FFE705980C2840F0BD80FFE7BD
:101B80000498012840F0B880FFE741F20000C4F259
:101B9000020000688007002809D5FFE708988069DF
:101BA00028B9FFE701208DF8270000F0B3BC0898A2
:101BB000006A019041F20000C4F2020000680007D0
:101BC000002809D5FFE741F20000C4F202000068D6
:101BD00000F0F000009009E041F29400C4F202002D
:101BE000006800F4706000090090FFE70198009918
:101BF000884229D9FFE70898006A01F021F928B145
:101C0000FFE701208DF8270000F084BCFFE741F2D8
:101C10000001C4F20201086840F00800086008688A
:101C200020F0F000089A126A10430860FFE741F2C2
:101C30000401C4F20201086820F47F40089AD269C6
:101C400040EA022008602CE0FFE741F20001C4F204
:101C50000201086840F008000860086820F0F00001
:101C6000089A126A10430860FFE741F20401C4F2C7
:101C70000201086820F47F40089AD26940EA0220F5
:101C80000860059860B9FFE70898006A01F0D8F885
:101C900028B1FFE701208DF8270000F03BBCFFE7EB
:101CA000FFE7FFF795FE41F20801C4F2020109685F
:101CB000C9B20A0943F64A21C0F60001895C01F065
:101CC0001F01C84040F20801C2F20001086040F262
:101CD0001000C2F200000068FFF716F98DF81B0033
:101CE0009DF81B0030B1FFE79DF81B008DF8270021
:101CF00000F010BCFFE766E00898806900283FD03C
:101D0000FFE741F20001C4F20201086840F001005F
:101D10000860FEF721FD0790FFE741F20000C4F2E2
:101D200002000068800700280CD4FFE7FEF714FDCE
:101D30000799401A032804D3FFE703208DF82700F2
:101D4000E8E3EAE7FFE741F20001C4F202010868B4
:101D500040F008000860086820F0F000089A126A55
:101D600010430860FFE741F20401C4F20201086871
:101D700020F47F40089AD26940EA0220086021E0FE
:101D800041F20001C4F20201086820F0010008607D
:101D9000FEF7E2FC0790FFE741F20000C4F2020008
:101DA0000068800700280CD5FFE7FEF7D5FC0799EF
:101DB000401A032804D3FFE703208DF82700A9E386
:101DC000EAE7FFE7FFE7FFE708980078C007002889
:101DD00000F08B80FFE70598082808D0FFE70598FA
:101DE0000C2816D1FFE70498032812D1FFE741F22F
:101DF0000000C4F2020000688003002808D5FFE755
:101E00000898406820B9FFE701208DF8270081E39A
:101E10006AE0FFE708984068B0F5803F09D1FFE726
:101E200041F20001C4F20201086840F48030086009
:101E300020E008984068B0F5A02F0DD1FFE741F2EF
:101E40000001C4F20201086840F4802008600868BC
:101E500040F4803008600CE041F20001C4F202015D
:101E6000086820F480300860086820F4802008604A
:101E7000FFE7FFE7FFE708984068D0B1FFE7FEF70C
:101E80006BFC0790FFE741F20000C4F2020000681B
:101E9000800300280CD4FFE7FEF75EFC0799401A88
:101EA000652804D3FFE703208DF8270032E3EAE733
:101EB00019E0FEF751FC0790FFE741F20000C4F281
:101EC00002000068800300280CD5FFE7FEF744FC01
:101ED0000799401A652804D3FFE703208DF82700EF
:101EE00018E3EAE7FFE7FFE7FFE7089800788007D5
:101EF000002840F18280FFE70598042808D0FFE71A
:101F000005980C2823D1FFE7049802281FD1FFE78A
:101F100041F20000C4F2020000684005002808D524
:101F2000FFE70898C06820B9FFE701208DF8270077
:101F3000F0E241F20401C4F20201086820F0F85016
:101F4000089A126940EA02600860FFE754E00898C6
:101F5000C06870B3FFE741F20001C4F202010868F3
:101F600040F480700860FEF7F7FB0790FFE741F24E
:101F70000000C4F202000068400500280CD4FFE70E
:101F8000FEF7EAFB0799401A032804D3FFE7032072
:101F90008DF82700BEE2EAE741F20401C4F2020133
:101FA000086820F0F850089A126940EA0260086058
:101FB00021E041F20001C4F20201086820F48070BF
:101FC0000860FEF7C9FB0790FFE741F20000C4F28A
:101FD00002000068400500280CD5FFE7FEF7BCFBB7
:101FE0000799401A032804D3FFE703208DF8270040
:101FF00090E2EAE7FFE7FFE7FFE7089800780007CD
:10200000002849D5FFE70898406910B3FFE741F27F
:102010009401C4F20201086840F001000860FEF774
:102020009BFB0790FFE741F29400C4F202000068B6
:10203000800700280CD4FFE7FEF78EFB0799401AB3
:10204000032804D3FFE703208DF8270062E2EAE7C4
:1020500021E041F29401C4F20201086820F001007D
:102060000860FEF779FB0790FFE741F29400C4F2A5
:1020700002000068800700280CD5FFE7FEF76CFB24
:102080000799401A032804D3FFE703208DF827009F
:1020900040E2EAE7FFE7FFE70898007840070028FA
:1020A00040F1C680FFE700208DF80F0041F2580094
:1020B000C4F202000068C000002813D4FFE7FFE765
:1020C00041F25800C4F20200016841F08051016001
:1020D000006800F0805002900298FFE701208DF820
:1020E0000F00FFE747F20000C4F200000068C005DF
:1020F000002822D4FFE747F20001C4F2000108687B
:1021000040F480700860FEF727FB0790FFE747F276
:102110000000C4F200000068C00500280CD4FFE7EE
:10212000FEF71AFB0799401A032804D3FFE70320A0
:102130008DF82700EEE1EAE7FFE7FFE708988068FF
:10214000012809D1FFE741F29001C4F202010868B9
:1021500040F0010008601FE00898806805280DD154
:10216000FFE741F29001C4F20201086840F0040068
:102170000860086840F0010008600CE041F290013E
:10218000C4F20201086820F001000860086820F02D
:1021900004000860FFE7FFE7FFE708988068E0B108
:1021A000FFE7FEF7D9FA0790FFE741F29000C4F28B
:1021B00002000068800700280ED4FFE7FEF7CCFA83
:1021C0000799401A41F28931884204D3FFE703207E
:1021D0008DF827009EE1E8E71BE0FEF7BDFA0790C7
:1021E000FFE741F29000C4F2020000688007002877
:1021F0000ED5FFE7FEF7B0FA0799401A41F2893190
:10220000884204D3FFE703208DF8270082E1E8E746
:10221000FFE79DF80F00012809D1FFE741F25801BF
:10222000C4F20201086820F080500860FFE7FFE771
:102230000898806A002800F06981FFE70898806AA2
:10224000022840F01E81FFE741F20C00C4F20200B8
:1022500000680490049800F003000899C96A884255
:102260003ED1FFE7049800F0700008990A6B6FF008
:102270000F0101EB0211884232D1FFE7049800F40C
:10228000FE400899496BB0EB012F29D1FFE7049874
:1022900000F400300899896B073918BF0121884282
:1022A0001ED1FFE7049800F4C0000899CA6B002112
:1022B000CFF6E07101EA0251A1F5001188420FD179
:1022C000FFE7049800F0C06008990A6C4FF07E4167
:1022D00001EA026101F17E41884200F09D80FFE742
:1022E00005980C2800F09380FFE741F20000C4F24B
:1022F000020000684001002809D4FFE741F2000015
:10230000C4F202000068C000002804D5FFE70120E5
:102310008DF82700FEE041F20001C4F202010868D6
:1023200020F080700860FEF717FA0790FFE741F28F
:102330000000C4F202000068800100280CD5FFE70D
:10234000FEF70AFA0799401A032804D3FFE703208F
:102350008DF82700DEE0EAE741F20C01C4F2020149
:10236000086848F28C02CFF69D121040089BDA6A8A
:102370001D6BD3F834E0D3F838C06FF00F0404EBD2
:102380000514224342EA0E22DC6B40F2000ECFF627
:10239000E07E0EEA045EAEF5001E42EA0E02D3F8BD
:1023A00040E04FF07E4303EA0E6303F17E431A439D
:1023B0000023CFF6FE7303EA4C331A431043086040
:1023C00041F20002C4F20202106840F08070106016
:1023D000086840F080700860FEF7BEF90790FFE7DC
:1023E00041F20000C4F202000068800100280CD411
:1023F000FFE7FEF7B1F90799401A032804D3FFE776
:1024000003208DF8270085E0EAE7FFE703E00120DD
:102410008DF827007EE033E041F20000C4F20200B4
:102420000068800100282AD4FFE741F20001C4F2CD
:102430000201086840F08070086041F20C01C4F2AB
:102440000201086840F080700860FEF785F9079087
:10245000FFE741F20000C4F202000068800100289A
:102460000CD4FFE7FEF778F90799401A032804D344
:10247000FFE703208DF827004CE0EAE7FFE7FFE7DE
:1024800043E005980C283BD0FFE741F20000C4F27E
:102490000200016821F080710160006810F0205F87
:1024A00009D1FFE741F20C01C4F20201086820F0F3
:1024B00003000860FFE741F20C01C4F20201086862
:1024C0004FF6FF72CFF6EE6210400860FEF744F957
:1024D0000790FFE741F20000C4F2020000688001AB
:1024E00000280CD5FFE7FEF737F90799401A0328B3
:1024F00004D3FFE703208DF827000BE0EAE703E0B1
:1025000001208DF8270005E0FFE7FFE700208DF8A8
:102510002700FFE79DF827000AB0B0BD80B582B064
:102520000190019801F0A6F802B080BDFFE7FEE738
:1025300081B0009000980068806900F002010020DE
:10254000B0EB510F05D0FFE70098016800208862CA
:10255000FFE7009800688069C00738B9FFE7009876
:102560000168886940F001008861FFE701B07047A9
:1025700080B586B004900391029204980068806947
:1025800000F010010120B0EB111F5FD1FFE7FFE762
:1025900004980068806900F020010020B0EB511F12
:1025A00028D1FFE70398013018B3FFE7FEF7D4F80E
:1025B0000299401A0399884203D8FFE70398B8B9F3
:1025C000FFE70499486C40F02000486404992020FB
:1025D00081F841000499002081F84200FFE7049946
:1025E000002081F84000FFE701208DF8170031E05E
:1025F000FFE7CDE7049801681020C86104980168DE
:1026000020200190C8610498FFF792FF0198049977
:102610000A6851684EF60003CFF600631940516016
:10262000049A516C41F004015164049981F841000D
:102630000499002081F84200FFE70499002081F806
:102640004000FFE701208DF8170003E000208DF81F
:102650001700FFE79DF8170006B080BD83B0DDF8D6
:102660000CC00290ADF806108DF80520009302987A
:1026700000684068039A20EA525049F60041CFF6BC
:1026800000410840BDF806106FF39F219DF805300A
:1026900041EA0341009B1943114308430299096829
:1026A000486003B07047000080B586B0DDF820C0F8
:1026B000049003918DF80B200193FFE704980068C4
:1026C000806903990840401AB0FA80F040099DF8EB
:1026D0000B10884228D1FFE70198013018B3FFE7BB
:1026E000FEF73AF80899401A0199884203D8FFE7A3
:1026F0000198B8B9FFE70499486C40F0200048649D
:102700000499202081F841000499002081F84200BA
:10271000FFE70499002081F84000FFE701208DF8D1
:10272000170005E0FFE7C9E700208DF81700FFE775
:102730009DF8170006B080BD80B584B0029001916D
:102740000092FFE702980068806900F020010020F5
:10275000B0EB511F2ED1FFE702980199009AFFF7C5
:1027600007FF20B1FFE701208DF80F0026E0FDF7FD
:10277000F3FF0099401A0199884203D8FFE70198B6
:10278000B8B9FFE70299486C40F02000486402990C
:10279000202081F841000299002081F84200FFE7E3
:1027A0000299002081F84000FFE701208DF80F001A
:1027B00004E0C7E700208DF80F00FFE79DF80F0049
:1027C00004B080BD80B584B0029001910092FFE713
:1027D00002980068806900F002010020B0EB510F00
:1027E00033D1FFE702980199009AFFF7C1FE20B1AB
:1027F000FFE701208DF80F002BE00198013018B39E
:10280000FFE7FDF7A9FF0099401A0199884203D814
:10281000FFE70198B8B9FFE70299486C40F0200043
:1028200048640299202081F841000299002081F833
:102830004200FFE70299002081F84000FFE70120F5
:102840008DF80F0005E0FFE7C2E700208DF80F00CC
:10285000FFE79DF80F0004B080BD000081B0FFE7E6
:1028600041F24C00C4F20200016841F00201016033
:10287000006800F0020000900098FFE701B0704788
:1028800080B582B040F28040C2F20000019045F273
:102890000041C4F200010160042141600021816017
:1028A0000122C260016141618161C1610162FDF784
:1028B000F7FF18B1FFE7FDF769FDFFE740F2804041
:1028C000C2F200000021FDF74DFF18B1FFE7FDF750
:1028D0005DFDFFE740F28040C2F200000021FDF7FD
:1028E0008DFF18B1FFE7FDF751FDFFE702B080BD96
:1028F000FFE7FEE7FFE7FEE788B007900691059245
:10290000079800F0070004900498C0F1070005281C
:1029100003D3FFE70420019004E00498C0F107000E
:102920000190FFE70198039004980430062803D82B
:10293000FFE70020009003E0049803380090FFE7D1
:102940000098029006980399012202FA01F10139D8
:102950000840029B984005999A40013A114008436B
:1029600008B070477047000080B586B005900491AC
:1029700000208DF80B0041F20C00C4F20200006848
:10298000800720B3FFE741F20C00C4F202000068A8
:1029900000F0030005990968884213D1FFE7059804
:1029A000006878B1FFE741F20C00C4F20200006851
:1029B00000F07001012000EB111005994968884270
:1029C00004D0FFE701208DF80B00FFE75DE00598DC
:1029D00000680190012808D0FFE70198022812D072
:1029E000FFE7019803281CD033E041F20000C4F255
:1029F000020000688007002804D4FFE701208DF85A
:102A00000B00FFE729E041F20000C4F20200006879
:102A10004005002804D4FFE701208DF80B00FFE7F4
:102A20001BE041F20000C4F20200006880030028AD
:102A30000ED4FFE741F20000C4F202000068400338
:102A4000002804D4FFE701208DF80B00FFE7FFE723
:102A500003E001208DF80B00FFE79DF80B0098B90B
:102A6000FFE741F20C01C4F20201086820F0730094
:102A7000059B1A68D3F804C06FF00F0303EB0C1327
:102A80001A4310430860FFE7FFE79DF80B0000289A
:102A900040F0AC80FFE741F20001C4F20201086897
:102AA00020F080600860FDF757FE0390FFE741F2D9
:102AB0000000C4F202000068000100280CD5FFE706
:102AC000FDF74AFE0399401A032804D3FFE70320C9
:102AD0008DF80B0000E0EAE79DF80B00002840F0BD
:102AE0008480FFE70498C0B9FFE741F21001C4F207
:102AF0000201086848F2FF02CFF6FD721040059A05
:102B00009368D2F80CC00022CFF6FE7202EA4C3273
:102B100042EA03221043086037E0049801281AD1E2
:102B2000FFE741F21001C4F20201086848F2FF0217
:102B3000CFF69F721040059A9368D2F810C0002219
:102B4000CFF6E07202EA0C52A2F5001242EA03222A
:102B50001043086018E041F21001C4F20201086855
:102B600048F2FF02CFF6FF121040059A9368D2F8A0
:102B700014C04FF07E4202EA0C6202F17E4242EA49
:102B8000032210430860FFE7FFE741F20001C4F2AF
:102B90000201086840F080600860FDF7DDFD0390E9
:102BA000FFE741F20000C4F20200006800010028C3
:102BB0000CD4FFE7FDF7D0FD0399401A032804D396
:102BC000FFE703208DF80B0000E0EAE79DF80B001B
:102BD00050B9FFE70598826941F21001C4F2020181
:102BE000086810430860FFE7FFE7FFE79DF80B0068
:102BF00006B080BD80B586B00590049100208DF8A8
:102C00000B0041F20C00C4F202000068800720B300
:102C1000FFE741F20C00C4F20200006800F003007C
:102C200005990968884213D1FFE70598006878B1D3
:102C3000FFE741F20C00C4F20200006800F07001EE
:102C4000012000EB111005994968884204D0FFE784
:102C500001208DF80B00FFE75DE00598006801900A
:102C6000012808D0FFE70198022812D0FFE7019859
:102C700003281CD033E041F20000C4F202000068D7
:102C80008007002804D4FFE701208DF80B00FFE740
:102C900029E041F20000C4F202000068400500286B
:102CA00004D4FFE701208DF80B00FFE71BE041F2A1
:102CB0000000C4F202000068800300280ED4FFE781
:102CC00041F20000C4F2020000684003002804D46E
:102CD000FFE701208DF80B00FFE7FFE703E001208D
:102CE0008DF80B00FFE79DF80B0098B9FFE741F264
:102CF0000C01C4F20201086820F07300059B1A68F9
:102D0000D3F804C06FF00F0303EB0C131A43104306
:102D10000860FFE7FFE79DF80B00002840F08C807B
:102D2000FFE741F20001C4F20201086820F0805080
:102D30000860FDF711FD0390FFE741F20000C4F2C7
:102D400002000068800000280CD5FFE7FDF704FDB5
:102D50000399401A032804D3FFE703208DF80B00E2
:102D600000E0EAE79DF80B00002864D1FFE7049833
:102D7000C0B9FFE741F21401C4F20201086848F249
:102D8000FF02CFF6FD721040059A9368D2F80CC08E
:102D90000022CFF6FE7202EA4C3242EA03221043CE
:102DA000086018E041F21401C4F20201086848F218
:102DB000FF02CFF6FF121040059A9368D2F810C0B8
:102DC0004FF07E4202EA0C6202F17E4242EA0322A6
:102DD00010430860FFE741F20001C4F202010868F5
:102DE00040F080500860FDF7B7FC0390FFE741F228
:102DF0000000C4F202000068800000280CD4FFE745
:102E0000FDF7AAFC0399401A032804D3FFE7032027
:102E10008DF80B0000E0EAE79DF80B0050B9FFE7E2
:102E20000598426941F21401C4F202010868104396
:102E30000860FFE7FFE7FFE79DF80B0006B080BDE5
:102E400080B586B004900020029041F25800C4F290
:102E500002000068C000002804D5FFE7FEF74EF925
:102E600003901AE0FFE741F25800C4F20200016843
:102E700041F080510160006800F08050019001989D
:102E8000FFE7FEF73BF9039041F25801C4F202015B
:102E9000086820F080500860FFE70398B0F5007FD5
:102EA00010D1FFE7049881280BD3FFE70498A128ED
:102EB00003D3FFE70220029002E001200290FFE727
:102EC000FFE717E00498812803D3FFE7032002906F
:102ED0000FE00498802803D1FFE70220029007E06A
:102EE0000498702803D1FFE701200290FFE7FFE775
:102EF000FFE7FFE742F20000C4F20200016821F0A0
:102F00000701029A11430160006800F0070002996E
:102F1000884204D0FFE701208DF8170003E000206D
:102F20008DF81700FFE79DF8170006B080BD000080
:102F300080B5002000F0C4F900F064FB80BD000003
:102F400080B58AB084460C98ADF826C0ADF8241040
:102F5000ADF82220ADF820308DF81F00BDF8260016
:102F6000802804DBFFE77F20ADF82600FFE7BDF8EF
:102F70002200802804DBFFE77F20ADF82200FFE776
:102F8000BDF82400402804DBFFE73F20ADF8240013
:102F9000FFE7BDF82000402804DBFFE73F20ADF845
:102FA0002000FFE7BDF82600BDF82210884207DAAE
:102FB000FFE7BDF82200BDF82610401A029006E097
:102FC000BDF82600BDF82210401A0290FFE70298D3
:102FD000ADF81C00BDF82400BDF82010884207DAC7
:102FE000FFE7BDF82000BDF82410401A019006E06C
:102FF000BDF82400BDF82010401A0190FFE70198A9
:10300000ADF81A00BDF82610BDF822204FF0FF30B1
:1030100091420146B8BF0121ADF81810BDF8241047
:10302000BDF820209142B8BF0120ADF81600BDF9CF
:103030001C00BDF91A10884204DDFFE7BDF91C0031
:10304000009004E0BDF91A0040420090FFE70098AC
:1030500000EBD0704008ADF81400BDF91C0000284A
:1030600044D1FFE7BDF82000BDF8241088420DDAF6
:10307000FFE7BDF82000ADF80E00BDF82400ADF864
:103080002000BDF80E00ADF82400FFE7BDF82200D7
:10309000BDF8261088420DDAFFE7BDF82200ADF832
:1030A0000E00BDF82600ADF82200BDF80E00ADF808
:1030B0002600FFE7BDF82400ADF81000FFE7BDF9DA
:1030C0001000BDF8201088420FDCFFE7BDF8260095
:1030D000BDF810109DF81F2000F09EF8FFE7BDF826
:1030E00010000130ADF81000E9E792E0BDF91A00D8
:1030F000002844D1FFE7BDF82000BDF82410884225
:103100000DDAFFE7BDF82000ADF80E00BDF8240091
:10311000ADF82000BDF80E00ADF82400FFE7BDF8C3
:103120002200BDF8261088420DDAFFE7BDF8220024
:10313000ADF80E00BDF82600ADF82200BDF80E0077
:10314000ADF82600FFE7BDF82600ADF81000FFE758
:10315000BDF91000BDF8221088420FDCFFE7BDF872
:103160001000BDF824109DF81F2000F055F8FFE76F
:10317000BDF810000130ADF81000E9E749E0FFE7C5
:10318000BDF82600BDF824109DF81F2000F044F87B
:10319000BDF82600BDF82210884208D1FFE7BDF82F
:1031A0002400BDF82010884201D1FFE731E0BDF8CE
:1031B0001400ADF81200BDF91200BDF91C1049420F
:1031C00088420FDDFFE7BDF81A10BDF81400401A61
:1031D000ADF81400BDF81810BDF826000844ADF88D
:1031E0002600FFE7BDF91200BDF91A1088420FDA78
:1031F000FFE7BDF81C10BDF814000844ADF814003A
:10320000BDF81610BDF824000844ADF82400FFE70F
:10321000B6E70AB080BD000082B0ADF80600ADF898
:1032200004108DF80320BDF806007F2805DCFFE7B9
:10323000BDF80400402801DBFFE73FE040F27800E2
:10324000C2F20000007940B1FFE79DF80300B0FA38
:1032500080F040098DF80300FFE79DF80300012886
:1032600016D1FFE7BDF8042002F00701012000FAA3
:1032700001F3BDF806006FF0700101EA0211421877
:1032800040F27E01C2F20001885C1843885415E0C8
:10329000BDF8042002F00701012000FA01F3BDF897
:1032A00006006FF0700101EA0211421840F27E013F
:1032B000C2F20001885C98438854FFE702B070476F
:1032C00080B582B08DF807009DF80720002A18BF4E
:1032D000FF2240F27E00C2F200004FF48061FCF752
:1032E000C3FF02B080BD000081B0ADF80200ADF8B0
:1032F0000010BDF8020040F27801C2F2000108801F
:10330000BDF80000488001B07047000080B586B06D
:1033100000F024FB40F28040C2F20000782101223C
:1033200044F62063FDF73EFB20B1FFE700208DF857
:103330001700B0E040F6C4100490FFE7049820B1F5
:10334000FFE7049801380490F8E778200290002104
:103350000391AE2200F012FB029803992022019201
:1033600000F00CFB029803991022009200F006FB7B
:1033700002980399B02200F001FB02980399C82239
:1033800000F0FCFA0298039A114600F0F7FA009A4E
:103390000298039900F0F2FA02980399402200F093
:1033A000EDFA02980399812200F0E8FA0298039955
:1033B000FF2200F0E3FA02980399A12200F0DEFA5E
:1033C00002980399A62200F0D9FA02980399A8223C
:1033D00000F0D4FA029803993F2200F0CFFA029845
:1033E0000399A42200F0CAFA02980399D32200F0AC
:1033F000C5FA0298039A114600F0C0FA02980399A0
:10340000D52200F0BBFA02980399F02200F0B6FA38
:1034100002980399D92200F0B1FA02980399222266
:1034200000F0ACFA02980399DA2200F0A7FA0298A9
:103430000399122200F0A2FA02980399DB2200F00D
:103440009DFA019A0298039900F098FA029803995C
:103450008D2200F093FA02980399142200F08EFA5C
:1034600002980399AF2200F089FA029803992E225C
:1034700000F084FA0398FFF723FF00F0C3F80398E5
:1034800040F27801C2F200010880488001204871B2
:103490008DF81700FFE79DF8170006B080BD00000B
:1034A00080B586B08DF8160004918DF80F2040F29B
:1034B0007800C2F2000000880499097808447F2847
:1034C0000BDCFFE740F27800C2F20000408804996C
:1034D00049780844402804DBFFE700208DF81700F6
:1034E00061E000200290FFE7029804994978884241
:1034F0004BD2FFE7049A50689DF816102039527895
:10350000029B11FB023130F8110001900020009065
:10351000FFE7009804990978884231D2FFE70198C3
:10352000009988400004002811D5FFE740F2780197
:10353000C2F200010888009A10444988029A114496
:103540009DF80F2080B289B2FFF766FE13E040F2CB
:103550007801C2F200010888009A10444988029A52
:1035600011449DF80F20B2FA82F2520980B289B25A
:10357000FFF752FEFFE7FFE7009801300090C8E731
:10358000FFE7029801300290AEE70498027840F21B
:103590007801C2F200010888104408809DF81600E6
:1035A0008DF81700FFE79DF8170006B080BD0000FA
:1035B00080B584B0029001918DF80320FFE7029856
:1035C0000078A8B1FFE70298007801999DF80320E0
:1035D000FFF766FF02990978884205D0FFE7029855
:1035E00000788DF80F0008E0029801300290E6E7BD
:1035F000029800788DF80F00FFE79DF80F0004B0E7
:1036000080BD000080B584B000208DF80F00FFE77A
:103610009DF80F00072828DCFFE79DF80F00B03069
:10362000C2B2782002900021019100F0A7F9019A1E
:103630000298114600F0A2F901990298102200F0B8
:103640009DF902989DF80F2040F27E01C2F2000120
:1036500001EBC2124021802300F0B0F9FFE79DF892
:103660000F0001308DF80F00D2E704B080BD0000DC
:103670007047000080B582B0009000980138B0F12A
:10368000807F03D3FFE70120019019E00098013803
:103690004EF21401CEF2000108604FF0FF300F210E
:1036A00000F062F84EF21801CEF20001002008602E
:1036B0004EF21002CEF20002072111600190FFE7E6
:1036C000019802B080BD000080B5FDF7F7FB80BD1A
:1036D00080B596B005A84421FCF7CEFD00200490EB
:1036E00003900290019000904FF40070FDF794FC5D
:1036F00018B1FFE7FCF74AFEFFE710200590012014
:103700000B9000200C9060210D910F9005A8FEF702
:103710000DFA18B1FFE7FCF739FEFFE70F20009024
:10372000002101910291039104916846FEF72AF865
:1037300018B1FFE7FCF72AFEFFE716B080BD0000D6
:103740004EF68851CEF20001086840F4700008601F
:1037500070470000FFE7FEE74EF60C50CEF2000087
:103760000068C0F30220704782B08DF80700009116
:103770009DF9070000280AD4FFE7009800019DF991
:1037800007104EF20042CEF2000288540BE000987F
:1037900000019DF8071001F00F014EF61452CEF211
:1037A00000028854FFE702B07047000083B0029027
:1037B000029800F0070000904EF60C51CEF2000186
:1037C0000868019001984FF6FF021040019001989F
:1037D000009A40EA02200022C0F2FA5210430190FF
:1037E0000198086003B0704780B58EB08DF837003F
:1037F000FFF79EFB694601200C90086000200590B1
:103800008022029215231946FFF79AFB029A059827
:103810000C996B4619602A2301931946FFF790FB18
:10382000019A029B05990C98EC46CCF800001046D2
:10383000FFF786FB029B05990C986A46106054229C
:103840001046FFF77DFB05990F200390FFF74CFD15
:103850000C9A40F20001C2F200010B910DF1370009
:10386000FFF7A6FE039816210791FFF73DFD0B9980
:103870000C9A44F2EA70C0F600000A90FFF798FE36
:1038800003982C210891FFF72FFD0A980B990C9AA9
:10389000FFF78EFE059939200490FFF725FD0B995F
:1038A0000C9A44F2E870C0F600000690FFF780FE24
:1038B00007990498FFF718FD0A980B990C9AFFF7DF
:1038C00077FE08990498FFF70FFD0A980B990C9A58
:1038D000FFF76EFE059963200990FFF705FD069836
:1038E0000B990C9AFFF764FE07990998FFF7FCFC07
:1038F0000A980B990C9AFFF75BFE08990998FFF755
:10390000F3FC0A980B990C9AFFF752FEFFF77AFE28
:103910000EB080BD80B582B0FDF7DEFAFFF7D8FEAD
:10392000FEF79CFFFEF7ACFFFFF7F0FC00210091D3
:103930000846FFF7D9FCFFF7FBFA009978208DF8CD
:1039400007000846FFF7D0FC9DF80700FFF74CFF83
:10395000FFF758FE009802B080BD000081B04DF224
:103960009000C0F203000090FFE7009820B1FFE74D
:10397000009801380090F8E701B0704780B584B036
:103980008DF80F008DF80E108DF80D209DF80E00AB
:103990008DF80B009DF80D008DF80C009DF80F10B0
:1039A0006A460A20106040F28040C2F200000DF129
:1039B0000B020223FDF720F904B080BD80B5C4B02E
:1039C0008DF80F018DF80E114292ADF806319DF879
:1039D0000E018DF8060000208DF80500FFE79DF828
:1039E0000500BDF8061188420FDAFFE742989DF8FE
:1039F0000510405C0DF1060211444870FFE79DF888
:103A0000050001308DF80500E9E79DF80F11BDF8BC
:103A1000060101306B460A221A6083B240F28040F0
:103A2000C2F200000DF10602FDF7E6F844B080BDD9
:103A3000F1EE100A4FF6FF71C0F2C03120EA01002A
:103A400040F04070E1EE100A7047000000000000F6
:103A5000000001020304060708090000000000003E
:103A60000000000000000000000000000000000056
:103A70000000000000000000000000000000000046
:103A8000000C000C000C000C000C000C000C000CD6
:103A9000000C000C000C0000000C000C00000000EA
:103AA00000000000001B001B001B001B001B00008F
:103AB0000000000000000000000000000000000006
:103AC0000000000000000000801980198019801992
:103AD000C07FC07F80190033C07FC07F00330033B8
:103AE000003300330000000000000000001E003F13
:103AF000807580650074003C001E000780058065AD
:103B000080658075003F001E000400040000000076
:103B1000007000D840D8C0D880D900730006000CCF
:103B2000801BC036C066C046C0068003000000008F
:103B300000000000001E003F003300330033001E71
:103B4000000CC03CC066806380618063C03E801C06
:103B50000000000000000000000C000C000C000C35
:103B6000000C000000000000000000000000000049
:103B700000000000000000000000800000010003C1
:103B8000000600060004000C000C000C000C000CE9
:103B9000000C000400060006000300018000002065
:103BA00000100018000C000C0004000600060006BF
:103BB0000006000600060004000C000C00180010AF
:103BC00000200000000C002D003F001E003300000C
:103BD00000000000000000000000000000000000E5
:103BE000000000000000000000000000000C000CBD
:103BF000000C000CC0FFC0FF000C000C000C000CFF
:103C000000000000000000000000000000000000B4
:103C100000000000000000000000000000000000A4
:103C200000000000000C000C00040004000800006C
:103C30000000000000000000000000000000000084
:103C4000001E001E00000000000000000000000038
:103C50000000000000000000000000000000000064
:103C6000000000000000000000000000000C000C3C
:103C70000000000000000000000300030003000635
:103C8000000600060006000C000C000C000C0018DA
:103C9000001800180000000000000000001E003F97
:103CA0000033806180618061806D806D80618061A2
:103CB00080610033003F001E000000000000000093
:103CC0000006000E001E0036002600060006000654
:103CD00000060006000600060006000600000000C0
:103CE00000000000001E003F807380618061800141
:103CF00000030006000C001800300060807F807F09
:103D00000000000000000000001C003E0063006393
:103D10000003000E000E00038001800180618073AB
:103D2000003F001E00000000000000000006000E22
:103D3000000E001E001E0016003600360066807F52
:103D4000807F000600060006000000000000000062
:103D5000007F007F006000600060006E007F806375
:103D60008001800180618073003F001E0000000020
:103D700000000000001E003F803380610060006E84
:103D8000007F80738061806180618033003F001E0E
:103D90000000000000000000807F807F80010003A1
:103DA000000300060006000C000C000C00080018C0
:103DB000001800180000000000000000001E003F76
:103DC0008063806180610021001E003F806180610E
:103DD00080618061003F001E0000000000000000C4
:103DE000001E003F00738061806180618073803FAE
:103DF000801D800180610073003F001E00000000F4
:103E0000000000000000000000000000000C000C9A
:103E1000000000000000000000000000000C000C8A
:103E20000000000000000000000000000000000092
:103E30000000000C000C000000000000000000006A
:103E4000000C000C0004000400080000000000004A
:103E5000000080008003000E003800600038000E73
:103E6000800380000000000000000000000000004F
:103E70000000000000000000807F807F0000000044
:103E8000807F807F00000000000000000000000034
:103E90000000000000000000000000400070001C56
:103EA000000780010007001C0070004000000000B7
:103EB0000000000000000000001F803FC071C060D3
:103EC000C000C00180030007000E000C000C0000C1
:103ED000000C000C0000000000000000001E003F6D
:103EE000803180718063806F806D806D806F8067AE
:103EF00000600032003E001C0000000000000000D6
:103F0000000E000E001B001B001B001B80318031C7
:103F1000803F803F8031C060C060C0600000000012
:103F200000000000007C007E00630063006300630B
:103F3000007E007E0063806180618063007F007E80
:103F40000000000000000000001E003F8031806182
:103F5000006000600060006000600060806180318F
:103F6000003F001E0000000000000000007C007FF9
:103F700000638063806180618061806180618061B5
:103F800000630063007E007C000000000000000071
:103F9000807F807F0060006000600060007F007FA5
:103FA0000060006000600060807F807F0000000093
:103FB00000000000807F807F006000600060006083
:103FC000007F007F006000600060006000600060B3
:103FD0000000000000000000001E003F80318061F2
:103FE0000060006000608063806380618061803178
:103FF000803F001E00000000000000008061806122
:104000008061806180618061807F807F806180616C
:10401000806180618061806100000000000000001C
:10402000003F003F000C000C000C000C000C000CCA
:10403000000C000C000C000C003F003F00000000D2
:10404000000000008001800180018001800180016A
:10405000800180018001806180618073003F001ECB
:104060000000000000000000C06080610063006686
:104070000066006C0078007C00660066006380616A
:104080008061C0600000000000000000006000606F
:104090000060006000600060006000600060006020
:1040A00000600060807F807F000000000000000052
:1040B000C071C071C07BC07AC06AC06AC06EC06483
:1040C000C060C060C060C060C060C0600000000030
:1040D0000000000080718071807980798079806D26
:1040E000806D806D80658067806780678063806396
:1040F0000000000000000000001E003F003380614F
:104100008061806180618061806180618061003355
:10411000003F001E0000000000000000007E007F45
:1041200080638061806180618063007F007E0060C9
:1041300000600060006000600000000000000000FF
:10414000001E003F0033806180618061806180617A
:104150008061806580670033803F401E0000000062
:1041600000000000007E007F8063806180618063CA
:10417000007F007E00660063006380618061C06034
:104180000000000000000000000E001F80318031A0
:1041900000300038001E000780038061806180319C
:1041A000003F001E0000000000000000C0FFC0FF34
:1041B000000C000C000C000C000C000C000C000C9F
:1041C000000C000C000C000C0000000000000000BF
:1041D00080618061806180618061806180618061D7
:1041E0008061806180618073003F001E00000000DC
:1041F00000000000C060C060C0608031803180314C
:10420000001B001B001B001B000E000E000E000414
:104210000000000000000000C0C0C0C0C0C0C0C09E
:10422000C0C0C0CC804C804C805E80528052807375
:10423000806180610000000000000000C0C080605C
:1042400080610033003B001E000C000C001E001FAC
:10425000003B80718061C0C00000000000000000D1
:10426000C0C08061806100330033001E001E000C5E
:10427000000C000C000C000C000C000C00000000F6
:1042800000000000803F803F800100030003000623
:10429000000C000C0018001800300060807F807F48
:1042A000000000000000000F000F000C000C000CCC
:1042B000000C000C000C000C000C000C000C000C9E
:1042C000000C000C000C000F000F0000001800187C
:1042D0000018000C000C000C000C00060006000684
:1042E0000006000300030003000000000000001EA1
:1042F000001E000600060006000600060006000676
:104300000006000600060006000600060006001E65
:10431000001E0000000C000C001E001200330033D1
:1043200080618061000000000000000000000000CB
:10433000000000000000000000000000000000007D
:10434000000000000000000000000000000000006D
:10435000000000000000E0FF00000000003800182E
:10436000000C000000000000000000000000000041
:10437000000000000000000000000000000000003D
:104380000000000000000000001F803F80618001ED
:10439000801F803F80618063807FC0380000000004
:1043A000000000000060006000600060006E007FA0
:1043B000807380618061806180618073007F006EA6
:1043C00000000000000000000000000000000000ED
:1043D000001E003F80738061006000608061807318
:1043E000003F001E0000000000000000800180016E
:1043F00080018001801D803F8073806180618061C9
:1044000080618073803F801D00000000000000007C
:104410000000000000000000001E003F00738061EB
:10442000807F807F00608071003F001E00000000E0
:1044300000000000C007C00F000C000C807F807FD0
:10444000000C000C000C000C000C000C000C000C0C
:104450000000000000000000000000000000801DBF
:10446000803F807380618061806180618073803F64
:10447000801D80018063007F003E000000600060BE
:1044800000600060006F807F80718061806180616A
:104490008061806180618061000000000000000098
:1044A0000006000600000000003E003E0006000678
:1044B00000060006000600060006000600000000D8
:1044C00000000006000600000000003E003E00065E
:1044D00000060006000600060006000600060006AC
:1044E0000046007E003C000000600060006000604C
:1044F000806100630066006C007C007600630063EE
:104500008061C0600000000000000000003E003E2E
:10451000000600060006000600060006000600066B
:104520000006000600060006000000000000000073
:10453000000000000000000080DDC0FFC0CEC0CC45
:10454000C0CCC0CCC0CCC0CCC0CCC0CC0000000023
:10455000000000000000000000000000006F807FED
:104560008071806180618061806180618061806133
:10457000000000000000000000000000000000003B
:10458000001E003F80738061806180618061807364
:10459000003F001E000000000000000000000000BE
:1045A0000000006E007F80738061806180618061A7
:1045B0008073007F006E006000600060006000009B
:1045C000000000000000801D803F807380618061DA
:1045D000806180618073803F801D80018001800147
:1045E0008001000000000000000000000067803F24
:1045F0000039003000300030003000300030003032
:1046000000000000000000000000000000000000AA
:10461000001E803F80610060007F803F80018061DC
:10462000007F001E000000000000000000000008E5
:1046300000180018007F007F0018001800180018EC
:1046400000180018801F800F00000000000000000C
:1046500000000000000000008061806180618061D6
:104660008061806180618063807F803D0000000008
:10467000000000000000000000000000C060803169
:1046800080318031001B001B001B000E000E000655
:10469000000000000000000000000000000000001A
:1046A00080DD80DD80DD0055005500550077007706
:1046B00000220022000000000000000000000000B6
:1046C00000000000806100330033001E000C000C6D
:1046D000001E003300338061000000000000000075
:1046E00000000000000080618061803100330033F1
:1046F000001B001B001B000E000E000E001C007CA7
:10470000007000000000000000000000C07FC07FBB
:10471000800100030006000C00180030C07FC07F3D
:10472000000000000000800380070006000600066D
:1047300000060006000E001C001C000E000600060D
:10474000000600060006800780030006000600063B
:104750000006000600060006000600060006000629
:1047600000060006000600060006000600060038E7
:10477000003C000C000C000C000C000C000E0007AC
:104780000007000E000C000C000C000C000C003C9C
:1047900000380000000000000000000000000000E1
:1047A0008038807F0047000000000000000000000B
:1047B0000000000000000000A0860100400D030082
:1047C000801A060000350C0040420F0080841E0055
:1047D00000093D0000127A000024F40000366E014A
:1047E0000048E801006CDC026F0078000C4800080B
:1047F0000000002014000000C40100082048000848
:1048000018000020B80A0000E00100080B120000A8
:104810005A3A000800093D000100000010000000A5
:0400000508000229C4
:00000001FF
